:020000040000FA
:10000000FC7F0020790B0000690B00006D0B0000E5
:1000100000000000000000000000000000000000E0
:10002000000000000000000000000000710B000054
:100030000000000000000000750B0000CD0C000067
:1000400010B5064C2378002B07D1054B002B02D0AE
:10005000044800E000BF0123237010BD5C000020B5
:1000600000000000D01E000008B5084B002B03D094
:100070000748084900E000BF07480368002B03D089
:10008000064B002B00D0984708BDC046000000007A
:10009000D01E00006000002058000020000000007A
:1000A000064B0322104002040549586808401043DB
:1000B0005860DA695107FCD47047C0460008004216
:1000C000FFFFFCFF38B5284A284B5A805A7852B2B5
:1000D000002AFBDB264B04211A6A264D0A431A62CA
:1000E0002B68012213432B602A680123214C1A42FA
:1000F000FAD1E2691A42F7D11423236041001E4865
:1001000001F008FD421EE068FF231A4098431043A7
:10011000E0602368022213432360EA69154B9107CC
:10012000FBD45A8B30218A4310210A435A83EB694E
:1001300001205A07FBD4114B02241A7802431A708B
:100140000F4B0F22197891431970197821431970B8
:100150000C490C782043087019780A401A701A78F4
:1001600020210A431A7038BD14400000000C0040E2
:100170000004004000080042006CDC0248440041DA
:100180003444004149440041F7B500230F1C01925B
:100190001D1C994254D001212A4E4000084333705F
:1001A000C1B2294B0322588B1C1C000910400128A6
:1001B00004D05B8B1B091A40022AF2D1606AC00A84
:1001C000C00208436062217E1F4B0122880708D4C9
:1001D000197E1142F7D05968C02292020A435A6030
:1001E00003E05B8B9B08134201D0002528E03270AE
:1001F000237E9907FCD5154A154B117801251970F6
:100200006268BD4212D0134B022013406360FFF7B7
:1002100047FF33785A1C3270227E9007FCD50B4979
:100220000B480A780135C254EDB2E9E78023DB02BE
:10023000134363600199002902D00320FFF730FFC8
:10024000281CFEBD7800002000080042280800425B
:1002500099000020FFFFFBFF024B00221870024BA9
:100260001A7070477A00002079000020F8B5274BFB
:100270001C786400E4B2264B03215D8B1A1C2D0907
:100280000D40012D04D05B8B1B0919400229F2D1CE
:10029000536ADB0ADB0223435362117E01231942B6
:1002A000FBD01B49498B8908194204D00320FFF772
:1002B000F7FE022427E017490D782B1C002B11D0E4
:1002C000154EEC1A365D154C2670114E177E012422
:1002D000768B274202D12642F7D00BE0B6082642A1
:1002E0000ED007E00B701C1C00280CD00320FFF779
:1002F000D7FE08E003200B700324FFF7D1FE02E0D5
:10030000013BDBB2DAE7201CF8BDC0467A000020D2
:1003100000080042790000207B00002028080042ED
:10032000034A1378591C1170024AD05401207047B7
:10033000790000207B000020154A164B1178002917
:1003400009D11549187809784118C9B21970802067
:1003500012494003C86111780131C9B2117019788E
:10036000F02902D81978092909D80B4908784042A0
:10037000C0B20870187809784118C9B2197012789B
:100380001B789A4203D18022044B5203DA617047F2
:100390007D000020010000200000002000440041FA
:1003A00010B5041C6B20FFF757FF201CFFF7B8FFA8
:1003B0000120FFF75BFF01210A1C6B20FFF7E4FE21
:1003C000014B187810BDC0469900002038B5051CB7
:1003D0006B200C1CFFF740FF281CFFF7A1FF201C1F
:1003E000FFF79EFF0120FFF741FF022038BD08B54F
:1003F0000520FFF7D5FFCE23011C19400520FFF78C
:10040000E5FF012008BD000010B5041C0020FFF727
:10041000C7FF78232D4A9843C1B2944242D018D8DE
:100420002B4B9C4238D009D82A4B9C4230D02A4BC7
:100430009C422FD0294B9C4245D13FE0284B9C4207
:100440002CD0284B9C422BD0274B9C423BD12023C5
:1004500033E0264A94422BD00AD8254B9C4223D025
:10046000244B9C4222D0244B9C422CD1402324E09C
:10047000224A94421ED004D8214B9C4223D16023AF
:100480001BE0204A944217D01F4A944215D01AE02C
:10049000082312E0102310E018230EE028230CE0BC
:1004A00030230AE0382308E0482306E0502304E024
:1004B000582302E0682300E0702319430020FFF76F
:1004C00085FF012000E0002010BDC046581100004B
:1004D00018100000780F0000C80F0000280F00005F
:1004E000B810000008110000681000009812000009
:1004F000F811000048120000A81100003813000095
:10050000E812000088130000D813000010B5041C86
:100510000020FFF745FF07239843E122C1B2920074
:10052000944220D008D8962C18D0FA235B009C4225
:1005300017D0642C22D11CE0114A944215D005D862
:100540009623DB009C4219D1042311E0FA22D20049
:1005500094420CD00B4A94420AD00FE0012421436C
:1005600007E0022304E0032302E0052300E0062362
:1005700019430020FFF72AFF012000E0002010BDF2
:10058000DC050000B80B000070B504AC267805ACA3
:100590002578441EA041C401002901D040210C430C
:1005A000002A01D020221443002B01D010231C4329
:1005B000002E01D008231C43002D01D004231C432E
:1005C0000220FFF7EDFE0125011C294021430220F6
:1005D000FFF7FCFE281C70BD10B5041C0420FFF7BB
:1005E000DFFE03231840084B9C4204D0074B9C427B
:1005F00008D1B02100E0982101430420FFF7E6FE76
:10060000012000E0002010BD10100000701000005C
:1006100008B50120FFF7C4FECF23011C19400120BB
:10062000FFF7D4FE012008BD07B5FFF7E0FEFFF796
:10063000EFFF0948FFF7E8FEFA20C000FFF766FF6A
:10064000002300930193181C191C1A1CFFF79CFF30
:100650000248FFF7C1FF07BD08110000101000009D
:1006600008B50348FFF72EFDFFF7DEFF08BDC046C3
:10067000A086010010B5C3699C07FCD4036802245E
:10068000A3430360C46901231C42FBD104682343D4
:1006900003600368DC07FCD4C46901231C42FBD15E
:1006A000C469DC401C42F7D1084B1A430260C3699D
:1006B0005A07FCD4C0239B0243608181C3699C0715
:1006C000FCD4036802221343036010BD0400004001
:1006D000037EDA07FCD5018570470000027E012306
:1006E0005107FBD5428B1A4207D1428BDA401A429E
:1006F00003D1428B92081A4202D0034B01221A7096
:10070000008DC0B27047C0467E00002070B50368FF
:10071000041C988B1A1C0821FF32084226D0802026
:1007200099839872112353704021144B9171507129
:100730005E68134DC0202E40800506435E605E69F2
:100740003540284358610F4818600F4818615D68AC
:100750000E4828408025AD02284358605868800B19
:100760008003586000235171237105E0137ADA0683
:1007700002D5201C00F0E4FA207970BD9C01002015
:10078000FFFFFF8F9C0000201C010020FF3F00F0B6
:10079000002303714371044B016083600B780222D4
:1007A00013430B707047C0460D07000038B5364B39
:1007B0002021DA6901200A43DA61344B06241A78D1
:1007C00002431A70324B0F2219789143197019782D
:1007D000214319702F490C782043087019780A407A
:1007E0001A701A7860210A431A702B4B2B4A5A80D0
:1007F0005A7852B2002AFBDB294B01211A780A43AE
:100800001A709A78D107FCD426480268510B1F222F
:100810001140914200D1052111408C011D8D2249CA
:100820002940214319850468A10C0A401F2A00D1E0
:100830001D221C8D1F210A408C4322431A85026809
:100840000721D20D0A408A4200D103220A40188DA6
:100850001103164A02400A431A8519787F220A407A
:100860001A701A78042112480A431A7058621A89B9
:100870000C218A431A811A8901218A431A81002195
:10088000802201F0A0F938BD000400405844004126
:100890003C44004159440041000C00400640000027
:1008A00000500041246080003FF8FFFFFF8FFFFFF2
:1008B0009C010020F7B5141C1F4A5F0101971D1C05
:1008C000D319061C5869271C4000400F0330103311
:1008D000C74006D00F1C8022596812060A435A608E
:1008E00009E02F1C7B1E9F41144BBF01FF18381CD1
:1008F000221C01F05FF901990F4808354218176171
:10090000131C5269A104920B890C92030A435A6189
:1009100059690B4A0A405A616B01F3180222DA71D5
:100920005979802252420A435A716B01F318DB79DC
:100930009A07FAD5201CFEBD9C0100201C01002056
:10094000FF3F00F0F8B51A4E051C3378141C002B3D
:1009500012D1184B184A1A645A6C920B92035A64BB
:10096000586C164A02405A64A2235B00EA5C40209D
:100970000243EA54012333704827FF37EA5D01231D
:10098000134012D00B4B5A6C9204920CA24202D22A
:100990005C6CA404A40C081C221C074901F00AF991
:1009A0000123EB550023337000E01C1C201CF8BD14
:1009B0007F0000209C010020DC000020FF3F00F0B1
:1009C000FF3083792022002900D110221343837144
:1009D00070470000084BFF305A69920B92035A612E
:1009E00002230372827980235B4213438371037A6B
:1009F0009A07FCD57047C0469C01002080235B42CB
:100A00001943C9B28172704770B5A02303225B00FD
:100A1000C254134B134A5C6CC021144089050C432B
:100A200046255C64FF35402444550F4D30261D6437
:100A300090256D0046555D6B1540294392255963FD
:100A40006D0080214155094D1D63B0256D00445551
:100A50005C6F22405A67B2235B00C15470BDC04630
:100A60009C010020FFFFFF8FDC0000205C010020C4
:100A7000024B5B785BB2002BFADB7047000C004046
:100A8000024BDB68DA06FBD57047C0460008004021
:100A9000F8B52A4B1E22596891430222114359602E
:100AA000274B28491E1C9982998A0A439A82F36827
:100AB0000227234C3B42FAD0234D0123AB60FFF7C2
:100AC000D7FF224B6B60FFF7D3FF8223DB016B80E4
:100AD000FFF7CEFFA38C80229343A384FFF7D0FFC0
:100AE0001B4BE362FFF7CCFFA38C1A4A1343A3848A
:100AF000FFF7C6FFA38C1F43A784F3681A06FCD533
:100B00000F4BDB685A06F8D50024FFF7B9FFAC603D
:100B1000FFF7AEFF104B6B60FFF7AAFF0F4B104AB9
:100B2000C0215A600F4A0906106A0002000A0143F8
:100B3000116207229C601A60F8BDC0460040004167
:100B4000000800400C060000000C004001050100F8
:100B5000B805FF7D040A00000007030010E000E074
:100B6000E703000000ED00E00EBEFEE70DBEFEE76D
:100B700005BEFEE702BEFEE70E4A0F4838B58242C8
:100B800004D10E4A0E4B93420ED10AE00D4C944212
:100B9000F7D00023D1188842F3D9E55804330D600B
:100BA000F8E700F011F804E09342FAD2002102C302
:100BB000FAE7FEE7000000205C000020AC03002004
:100BC0005C000020D41E000038B5344D2B68013382
:100BD0001AD0334B2A1D1A60EAB2002A14D1314BC5
:100BE000197801231940304B0AD118682F4A9042D6
:100BF00001D1196008E01A602D4A013A002AFCD19F
:100C00001A602C4B01221A70FFF742FF62B6FFF701
:100C100027FD284B284C1B78002B0AD02B6883F328
:100C200008881E4BFF229343A3601D4B1B681B6863
:100C3000184700F09DFD00F04FF8204B8022520332
:100C40009A601F4B1F4A051C5A60216AC022090284
:100C5000090A12060A43226200229A6007221A60D9
:100C6000AB68281C9847184B002801D001221A7045
:100C70001A78002A05D0002000F08CFA00F004FB5E
:100C8000FCE71B78002BEBD100F0E6FD0028E7D055
:100C9000012000F07FFA00F0F7FAFCE700200000E6
:100CA0001C02002038040040FC7F002035817307BF
:100CB00048E801008000002000ED00E00044004111
:100CC00010E000E0E70300008100002008B5FFF716
:100CD00033FB00F0C3FA08BD10B5054B054C23608B
:100CE000FFF764FD201C2168FFF752FD201C10BD9A
:100CF000005000412002002070B5051CC0B0081C47
:100D0000161C0C1C00F067FF40006A4603230230EB
:100D10005370107076080123E218013A11785A00D6
:100D2000002906D1281C69460023FFF7C3FD40B007
:100D300070BDB342F6DA684681520133ECE7000039
:100D4000F7B5BA4A04681378B949271CFF37051C60
:100D5000102038720B705378B648B74E03709378F2
:100D60003380D178338809020B4333801179B34B38
:100D70001980517918880902084318809079B04980
:100D80000880D2790888120202430A8040227A71D0
:100D9000A84F3A78A64F120238780F1C0243A94890
:100DA0008446181C624500D1C2E020DC8021490045
:100DB0008A4200D16EE109DC812A00D192E0822AC8
:100DC00000D195E0802A00D064E18BE081235B00B4
:100DD0009A4200D1CFE000DA58E1C0239B009A424A
:100DE00000D157E1984B9A4200D14FE152E1902354
:100DF0001B019A4269D015DCD023DB009A4222D035
:100E000088231B019A4269D0A023DB009A4200D0BC
:100E100040E1201CFFF7DEFD3188286889B2FFF72A
:100E2000EDFD3BE1894B9A4200D12FE100DC31E13D
:100E3000874B9A4200D11DE1864B9A4200D029E1AE
:100E400033886B7122E133881B0A012B08D10B8890
:100E500012222868934201D80A8892B27E4911E191
:100E600033881B0A022B08D10B884322286893423F
:100E700001D80A8892B2794904E133881B0A032B0E
:100E800000D007E13388DBB2012B17D0002B07D04D
:100E9000022B00D0FEE00A882868D2B2704911E027
:100EA000042201A86F4900F085FE3B8804222868CF
:100EB000934201D83A8892B201A9E3E00A882868EF
:100EC0006949D2B2FFF718FFE8E03388201C2B7184
:100ED000FFF780FD201CFFF797FDDFE0291C01C90B
:100EE0000122CFE0614900230B8028680222CAE07A
:100EF0005E4900220A801888502210405C4A107017
:100F00001E880F20304018801888032800D9C1E0BF
:100F100012781B8808335B01E418A379002A01D0FA
:100F20009B0600E0DB06DB0F0B8028680222A9E0AD
:100F300019887F2291434E4AC9B2117018880F2137
:100F4000014019803188002900D0A3E019880029C8
:100F500000D19FE01988032900D99BE012781B88F3
:100F600008335B01E318002A02D020225A718DE079
:100F7000102159718AE002887F239A433C4BD2B2F8
:100F80001A7001880F220A4002803288002A00D09D
:100F900080E00288002A00D17CE00288032A00D980
:100FA00078E01B78002B1FD0038808335B01E3181F
:100FB0009B799A066AD50388202208335B01E318DF
:100FC0001A71038808335B01E318DB795F065DD58E
:100FD0000388402208335B01E318DA710388022298
:100FE00008335B01E3181EE0038808335B01E31854
:100FF0009B79D9064AD50388102208335B01E31890
:101000001A71038808335B01E318DB799A063DD532
:101010000388202208335B01E318DA710388012278
:1010200008335B01E3181A7130E0C0469C000020D1
:1010300083000020880000208A0000208C0000200F
:1010400086000020020300000103000021200000B0
:10105000A121000021220000241C00000400002027
:101060000C1C0000FC1B0000001C00008400002081
:10107000820000200B8808222868934201D80A8841
:1010800092B207490023FFF715FC07E0201CFFF789
:10109000A1FC03E0201C0121FFF792FCF7BDC04634
:1010A0004800002007B5054B0122019001A91868EE
:1010B000131CFFF7FFFB01200EBDC04620020020DD
:1010C00013B5054B6C4607341868211C0122FFF745
:1010D00039FC207816BDC0462002002010B5074C10
:1010E000201CFFF713FB031C0020834205D022685D
:1010F0004823FF33D05C0123184010BD200200209C
:1011000010B5054A0C1C031C191C10680123221C75
:10111000FFF7D0FB201C10BD2002002070B5084C4A
:10112000061C201C0D1CFFF7F1FA0023984205D085
:101130002068311C2A1CFFF705FC031C181C70BD1D
:1011400020020020F8B50C4C051C201C0E1CFFF7DB
:10115000DDFA0023271C341C98420AD0002C07D04B
:10116000291C221C3868FFF7EDFB241A2D18F5E71F
:10117000331C181CF8BDC0462002002008B5031C13
:10118000081C111C9847024B64221A8008BDC046F7
:1011900092000020012805D1054B064A1A60064B33
:1011A000187004E0002802D1044A014B1A6070470D
:1011B00090020020581C000098000020A41C000091
:1011C00030B50A1C1C4985B00978031C00292AD0B7
:1011D000042A01D1006804E0022A01D1008800E05D
:1011E0000078520004A98B180B3B9C1AA3420BD029
:1011F0000F210140092902D83025294300E0373169
:1012000019700009013BF1E701A930230B70782325
:101210004B700A208B1898700D20D870074B043241
:101220001B68D86803E005490968C868191CFFF7FE
:10123000A5FF05B030BDC0468E0000209002002002
:1012400072B6EFF30883044A1360036883F30888D7
:10125000436818477047C04694020020084B1A881C
:10126000002A03D01A88013A92B21A80054B1A88D4
:10127000002A03D01A88013A92B21A807047C046F9
:101280009200002090000020F0B591B008A9CC4A4F
:101290000B1C31CA31C351CA51C360CA60C3C94BA8
:1012A000C9489A687A255203520F92005258C7498A
:1012B00002609C68A4B262430C60C54900240A60C5
:1012C000C44A1460C44C2570C44CC54D2368281C06
:1012D0001B6940219847002802D0C24B64221A8023
:1012E000C14B00221860C14B1D60C14BC04DBE4FA9
:1012F0001A602A683B689A42E6D2BC4B1B681A788F
:10130000FF2A00D114E2232A00D0EBE1B94E337852
:10131000002B06D0B14BB8491B680222D868FFF7F2
:101320002DFFAD4B1B78532B3CD13B682A68934271
:101330001ED9AE4801322A609A1AB04B01681B6868
:1013400001310160AE4E9A4201D2326000E033605A
:10135000A04832680068049000F02CFC33682968CB
:101360005A182A60A14A1668F1181160A54A13702C
:101370002B68013B2B609D4B1A68013A1A60A14B08
:101380009E4A1B7811688B420AD222689148C91A7A
:10139000006892699047002802D0924B64221A801C
:1013A000C0468DE1522B0AD18A48944A23680068CE
:1013B00011685B69039098476422934B0DE04F2BB3
:1013C00005D1844B8D4A1B6812681A7078E1482B4E
:1013D00005D1804B894A1B6812681A8070E1572B2F
:1013E00005D17C4B854A1B6812681A6068E16F2B37
:1013F00003D1784B0121186807E0682B08D1754BA1
:101400007E481B6802211B880360FFF7D9FE57E165
:10141000772B06D16F4B79481B6804211B6803604A
:10142000F3E7472B13D1754B1868FFF709FF774B8C
:101430001B6883F3088862B6754B1B78002B00D1BC
:101440003EE1664B06201B681B68984738E1542B29
:1014500004D101233370614B1B6864E04E2B0CD127
:101460003378002B06D15D4B63491B680222D86894
:10147000FFF784FE0023337022E1562B57D12368F7
:101480006449D8680122FFF779FE23686249D86869
:101490000322FFF773FE614D2368291CD8680122DF
:1014A000FFF76CFE23685E49D8680D22FFF766FEE1
:1014B0002368291CD8680122FFF760FE4B4F4C4D72
:1014C0005849002339602B603A1C281C13685E1CA5
:1014D00016601B780593002B03D00368013303606B
:1014E000F4E73E4E2A683368D868FFF747FE336852
:1014F0004A49D8680122FFF741FE059929604A4907
:1015000039603A4A1368581C10601B78002B04D0CD
:10151000374B1A6801321A60F3E733682A68D868D3
:10152000FFF72CFE3368D86833490222C6E0334AFD
:10153000582B17D1244E264D366813682A68B100FF
:1015400093420AD21F4D5808E861384828801D4D43
:10155000287DC607FBD55B18F2E7204B34491B6892
:10156000D868AAE0592B79D112681A4B3149002A60
:1015700002D11B680B606CE0124D086819686B683B
:10158000104E8025AB4392087360002A61D02A4B2D
:101590000C4D2B800B4E337DDD07FBD500230A4D10
:1015A0002D680195AD08AB4203D3244D054E35801F
:1015B00046E09342F9D09D00465901334E51EEE783
:1015C000381C00000040004148020020400200207A
:1015D0003C0200208C0200203802002090020020F3
:1015E0004C02002090000020300200203402002035
:1015F000440200208E000020981C00009802002069
:101600009C0200202C020020920000209402002066
:1016100098000020741C00009D1C0000761C000037
:10162000C01C0000781C0000841C000002A5FFFF05
:101630008D1C00009400002044A5FFFF04A5FFFFBF
:101640003F4E357DEE07FBD59D0049194019D21A52
:101650009BE73C4B3C491B68D8682EE05A2B2FD1A6
:101660003A4B17681D680026EF19BD4206D028784E
:10167000311C00F013F90135061CF6E7314B3449F3
:101680001B680122D868FFF779FD07230F2232403B
:10169000111C36093031092A00DD07311820C01825
:1016A0006A468154013BF1D2236806A9D868082212
:1016B000FFF764FD23682749D8680322FFF75EFD22
:1016C000254B7A221A70254B00221A60244B1B7876
:1016D00093422DD01B4B23491B680122D868FFF78A
:1016E0004DFD25E0111C3039C8B21C4B092804D827
:1016F0001D682A01114319601AE0111C413905299E
:1017000003D81E68373A310106E0111C61390529FA
:1017100004D81868573A01010A4308E02C2A03D17B
:101720000A4A1968116001E00B490A7000221A6028
:101730000D4B1A6801321A600C4B1A680132D5E55C
:101740000040004190020020911C00008C0200200B
:10175000951C0000971C0000380200209802002011
:101760008E0000209B1C0000440200203402002058
:1017700010B51C4B01201A78032402431A701A4B2F
:101780000F2219789143197019782143197017495C
:101790000C782043087019780A401A701A783021A2
:1017A0000A431A70124B80211A6A0A431A62114BBB
:1017B000114A5A805A7852B2002AFBDBC4220F48E1
:1017C0000F499203FEF756FF0E4A002313700E4A8C
:1017D00013700E4A13700E4A13700E4A13700E4A9D
:1017E000137010BDD6440041BB440041D7440041B2
:1017F00000040040000C004019400000001C0042A2
:101800002AF60000A002002027030020A1020020E9
:10181000A4020020280300202503002008B5C1B23F
:101820000248FEF755FF012008BDC046001C0042DB
:10183000024B187E4007C00F7047C046001C004294
:1018400008B5FFF7F5FF0028FBD00248FEF746FF7A
:1018500008BDC046001C004208B5FFF7E9FF0023A1
:10186000984205D0FFF7ECFF031C233B5A4253413B
:10187000181C08BD70B5041C0D1C4618B44204D0D9
:101880002078FFF7CBFF0134F8E7281C70BD10B5B6
:10189000041CFFF7D5FF2070012010BD0B0A584033
:1018A000034B4000C05A0902484080B27047C0460E
:1018B000CE1C0000F7B50024051C0F1C261CBC42E2
:1018C00020D0FFF7BDFF114BC0B21B780190002B59
:1018D0001AD1311CFFF7E2FF0D4B061C1A88002AB3
:1018E00004D10C4A11782A1C002907D001996A1CDE
:1018F0002970802F02D11988013919800134A4B2CE
:10190000151CDCE7301C00E00120FEBD2503002093
:10191000A202002026030020F0B53E4E85B0002232
:1019200003900C1C32703C4B914201D1012201E02A
:101930003A490C801A707F231C4201D080349C43AA
:10194000FFF77EFF3378C0B2002B07D0002535703B
:10195000FFF776FF3378C0B2AB4236D1432803D0CD
:10196000712853D01528EBD1012300930120FFF7F4
:1019700055FF0098FFF752FF00998025C843C0B279
:10198000FFF74CFF039B00270293244A1388002B88
:101990001DD1214901930978002918D10198FFF739
:1019A0003DFF391C0198FFF779FF013D071C002D11
:1019B000EBD1000AC0B2FFF731FFF8B2FFF72EFFFC
:1019C000FFF73EFF3378002B0AD035701FE00299F5
:1019D000013B09781380029B019101330293DDE7FB
:1019E000C0B2062807D1009B03990133DBB28031D6
:1019F0000093803C0391002CB8D10420FFF70EFF28
:101A0000FFF71EFF044B01251C7000E00025281C79
:101A100005B0F0BD2503002026030020A20200200F
:101A2000F0B5384C87B0002301902370994201D162
:101A3000012301E0344A1180344A642613704320A4
:101A4000FFF7ECFE324FFFF7F3FE002803D1002F23
:101A500003D0013FF7E7002F03D1013E002EEED166
:101A60004DE00125FFF7ECFE2378002B38D1C0B202
:101A70000290012805D004283DD10620FFF7CEFEB4
:101A800039E005AE0221301CFFF714FF01988021D8
:101A9000FFF710FF23780390002B18D1FFF7D0FE3B
:101AA0000702FFF7CDFEBFB223783F18BFB2012B6C
:101AB0000DD0039B9F4207D13378AB4204D1EB4357
:101AC0007278DBB29A4204D01820FFF7A7FE0023F9
:101AD00003E00620FFF7A2FE029B2278002A02D034
:101AE000002626700BE0012B05D1019A6B1C803279
:101AF000DDB20192B6E7054A002313700126301CBF
:101B000007B0F0BD25030020A2020020260300201C
:101B100000350C00002934D00123002210B4884283
:101B20002CD301242407A14204D2814202D209010C
:101B30001B01F8E7E400A14204D2814202D249002D
:101B40005B00F8E7884201D3401A1A434C08A042D0
:101B500002D3001B5C0822438C08A04202D3001B66
:101B60009C082243CC08A04202D3001BDC0822437D
:101B7000002803D01B0901D00909E3E7101C10BCA1
:101B80007047002801D00020C04307B4024802A1DA
:101B90004018029003BDC046190000000029F0D093
:101BA00003B5FFF7B9FF0EBC4243891A1847C04678
:101BB0007047C04610B50023934203D0CC5CC45498
:101BC0000133F9E710BD031C8218934202D019704B
:101BD0000133FAE770470023C25C0133002AFBD1CE
:101BE000581E7047F8B5C046F8BC08BC9E46704702
:101BF000F8B5C046F8BC08BC9E467047040309040B
:101C000041726475696E6F204C4C4300417264757B
:101C1000696E6F204D4B5220576946692031303133
:101C20003000000012010002020000404123540075
:101C30000002010200010000080000001000000086
:101C400020000000400000008000000000010000B3
:101C500000020000000400001D18000041180000F0
:101C600031180000751800008F18000019190000C5
:101C7000211A00007600200041707220313120329C
:101C80003031390031333A30393A353600580A0D9F
:101C900000590A0D005A00230A0D003E00322E3072
:101CA00000000000A5100000C1100000DD100000C1
:101CB000011100001D11000001110000451100007C
:101CC0005B41726475696E6F3A58595A5D00000045
:101CD0002110422063308440A550C660E77008811F
:101CE00029914AA16BB18CC1ADD1CEE1EFF1311296
:101CF000100273325222B5529442F772D66239936F
:101D000018837BB35AA3BDD39CC3FFF3DEE36224E5
:101D1000433420040114E664C774A44485546AA5BE
:101D20004BB528850995EEE5CFF5ACC58DD5533675
:101D3000722611163006D776F6669556B4465BB70E
:101D40007AA719973887DFF7FEE79DD7BCC7C44845
:101D5000E5588668A7784008611802282338CCC95E
:101D6000EDD98EE9AFF9488969990AA92BB9F55AD5
:101D7000D44AB77A966A711A500A333A122AFDDBAE
:101D8000DCCBBFFB9EEB799B588B3BBB1AABA66CA5
:101D9000877CE44CC55C222C033C600C411CAEEDFE
:101DA0008FFDECCDCDDD2AAD0BBD688D499D977EB5
:101DB000B66ED55EF44E133E322E511E700E9FFF4E
:101DC000BEEFDDDFFCCF1BBF3AAF599F788F889104
:101DD000A981CAB1EBA10CD12DC14EF16FE18010E8
:101DE000A100C230E3200450254046706760B983EB
:101DF0009893FBA3DAB33DC31CD37FE35EF3B10238
:101E00009012F322D2323542145277625672EAB5FA
:101E1000CBA5A89589856EF54FE52CD50DC5E23487
:101E2000C324A01481046674476424540544DBA7CA
:101E3000FAB79987B8975FE77EF71DC73CD7D326D7
:101E4000F2369106B01657667676154634564CD95A
:101E50006DC90EF92FE9C899E9898AB9ABA9445827
:101E6000654806782768C018E1088238A3287DCB2A
:101E70005CDB3FEB1EFBF98BD89BBBAB9ABB754A77
:101E8000545A376A167AF10AD01AB32A923A2EFDBA
:101E90000FED6CDD4DCDAABD8BADE89DC98D267CC7
:101EA000076C645C454CA23C832CE01CC10C1FEF0A
:101EB0003EFF5DCF7CDF9BAFBABFD98FF89F176E17
:101EC000367E554E745E932EB23ED10EF01E00004B
:101ED000000000000114000009024300020100801C
:101EE0003209040000010202000005240010010470
:101EF00024020005240600010524010001070583D2
:101F0000030800FF09040100020A00000007058120
:101F100002400000070502024000000000C201006C
:101F200000000800690000004100000000000000FF
:1020000000800020555900003F5900003F59000052
:1020100000000000000000000000000000000000C0
:102020000000000000000000000000003F59000018
:1020300000000000000000003F590000A959000006
:102040003F5900003F5900003F5900003F59000030
:102050003F5900003F5900003F590000415900001E
:102060003F5900003F5900003F5900003F59000010
:102070003F590000FD360000ED3600003F590000DA
:102080003F5900003F5900003F5900003F590000F0
:10209000000000003F5900003F5900003F59000078
:1020A0003F5900003F5900003F5900003F590000D0
:1020B0000000000010B5064C2378002B07D1054B1B
:1020C000002B02D0044800E000BF0123237010BDA4
:1020D000E0000020000000009C6B0000044B10B5E5
:1020E000002B03D00349044800E000BF10BDC046E8
:1020F00000000000E40000209C6B000010B5044CC0
:1021000020000C3003F049FB200003F046FB10BD1B
:102110000401002013B50D4800F05CFA6E2347223D
:1021200000930A21223B0A4803F0CAF9094C0A49E4
:10213000200003F081FB200008490C3003F07CFBF9
:10214000074A0849002003F0FFFF13BD24010020C7
:102150001C0100200401002060650000776500007C
:1021600000000020FD20000037B596211C4C89019D
:10217000200001F031FF200001F030FF0028FAD0EC
:102180001849200003F098FA1749200003F094FA48
:10219000164D174A1749280000F0D5F8032807D034
:1021A0001549200003F088FA144803F041FCEFE7DA
:1021B0001349200003F080FA1249200003F062FA6C
:1021C0002900684600F0AAF86946200003F07EFA6C
:1021D0000D4B0E48196889B200F0FEF837BDC046B5
:1021E000CC060020E1650000066600003C010020EE
:1021F0000C0000201C0000201B660000B80B000033
:102200003166000045660000040000202401002023
:102210000C23F0B5324C334922688BB0534304A8E9
:10222000C91803F02CFB304907A803F005FB2F4E1B
:1022300007A8316803F076FB2D4D07A8290003F0AD
:102240005BFB2C4907A803F057FB069907A803F08E
:102250005CFB290007A803F04FFB04A907A803F0C3
:1022600039FB254B254D0293254B02A95B682800BD
:1022700001930393234B1A6892B200F015F907A952
:10228000280003F0F8F9280000F023F907001E4D9C
:102290001E49280003F0F6F907A9280003F0EBF91E
:1022A0001B49280003F0EEF90A223900280003F048
:1022B0005AFA3368174A01333360236812680133CE
:1022C0002360934201DB00232360134803F0B0FB3B
:1022D00007A803F062FA04A803F05FFA0BB0F0BDA0
:1022E0000001002004010020B6650000FC00002071
:1022F000C4650000BE650000346B000024010020AE
:102300001C01002018000020CC060020C66500003B
:10231000D1650000080000208813000010B50400FB
:1023200003F0C6F8200000F00FFD200010BD10B52E
:102330000800110000F09CFD10BD436810B5002B93
:1023400000D0984710BDF8B5050008000E00170032
:1023500004F0B4F80400380004F0B0F8E1B2C3B2FD
:102360003A00300000F082FC0424431C14D003F037
:1023700029FB0024060003F025FB2B68801B9842F4
:102380000AD22800FFF7D9FF642003F051FB00F0C8
:10239000B1FC04000228EED92000F8BD0022024B57
:1023A000024906C37047C0463C01002050C30000EC
:1023B0000020704710B503689B6B984710BD4069BB
:1023C000704713B56B460268D9710733546819001A
:1023D0000122A04716BD7047F8B5037C04000F002A
:1023E000FF2B02D003685B6A984700F083FB00254F
:1023F0000600FF2808D001000122380000F084F90F
:1024000065612674678201352800F8BDF7B5019231
:10241000037C04000F00FF2B02D003685B6A98471F
:1024200000F068FB00250600FF280BD00323020004
:102430000199786800F0A6F96B469B88656126745F
:10244000638201352800FEBD10B50400007CFF2822
:1024500007D000F01BFA217C024800F0D1F8FF23DE
:10246000237410BD4401002070B50E0086B0040036
:1024700002A8150003F01CF802AA31000848FFF773
:1024800056FF00280AD0074A23680492039A9B6AE1
:102490000192059204A92A002000984706B070BD59
:1024A0003C010020346B000070B5037C04000D007B
:1024B0001600FF2B02D100F01DFB2074227C0020AF
:1024C000FF2A05D068680123310000F09DF9012042
:1024D00070BD10B5007C00F0CFFA10BD10B514002F
:1024E000007C92B200F07EFA200010BD436937B53F
:1024F0000400002B0CDD6B46DD1D017C01232A004E
:10250000054800F0D3F863692878013B63613EBD5C
:1025100001204042FBE7C0464401002013B50400FF
:102520006369217C5A1E6261002B06D06A46012332
:102530000732044800F0BAF8F2E7080000F0DAF9D0
:10254000606116BD44010020436910B5002B04DD15
:10255000017C034800F09AF810BD01204042FBE7DF
:102560004401002007B500236A4601931380007CD4
:1025700001A900F037FB6B466A461B7850781B02B6
:10258000C01880B20EBD13B500236A460400019343
:102590001380087C01A900F025FB01A9200002F0AE
:1025A0009DFF200016BD000070B504000020130040
:1025B00062690D00824209DD217C2A00044800F096
:1025C00075F8002802DD63691B1A636170BDC0469F
:1025D00044010020FA239B008360044B002208334F
:1025E0000360FF2342600374426170475C66000031
:1025F00010B504007822002103F093FE200010BDE6
:1026000010B50C244C4304192068002805D003F0B1
:1026100075FE002363602360A36010BD70B50500E4
:102620000024210028000134FFF7EAFF0A2CF8D12A
:10263000280070BDF7B50C244C430419A3680500AD
:102640000E00002B1AD12768002F05D10E4803F089
:102650004BFEA760606020606B469F1D0A4BF0B286
:102660003A0021683B8000F081F9002806D02368F9
:102670003A8863600C237343EB189A600C235E4323
:10268000AD19A868FEBDC046DC05000070B50400A9
:102690000D00FFF7CFFF002805D00C216943641817
:1026A0006368187870BD01204042FBE7F8B506006A
:1026B0000C0017001D00FFF7BDFF002811D0854258
:1026C00000DD05000C235C4334192A0061683800E2
:1026D00003F01EFE280063685B196360A3685B1B40
:1026E000A360F8BD10B5054C2000FFF781FF044A38
:1026F0000449200003F028FD10BDC046440100201D
:10270000000000201D2600007FB56B46DD1D9C1DCE
:102710001B4B0600187829702270002801D100F0A8
:10272000CBFB002000F0B0FB00F024FC03212820AC
:1027300000F0D2FD3000002100F0BCFD2800002296
:10274000012100F08BFC01222000110000F086FC2A
:1027500000F064FC00F036FC002000F095FB00F077
:1027600009FC0E220F2300216A446B44117019707A
:102770002820013100F09AFC00F024FC7FBDC04607
:10278000C90100207FB50E0069468C1C23701D4BCB
:1027900001901878CD1C2A70002801D100F08CFB24
:1027A000002000F071FB00F0E5FB0421282000F080
:1027B00093FD002201A8042100F050FC300000210C
:1027C00000F078FD28000022012100F047FC0122E2
:1027D0002000110000F042FC00F0F4FB002000F0AB
:1027E00053FB00F0C7FB0E220F2300216A446B4409
:1027F000117019702820013100F058FC00F0E2FB44
:102800007FBDC046C90100207FB50E0069468C1C03
:1028100023701D4B01901878CD1C2A70002801D11F
:1028200000F04AFB002000F02FFB00F0A3FB042186
:102830002D2000F051FD002201A8042100F00EFC23
:102840003000002100F036FD28000022012100F0B8
:1028500005FC01222000110000F000FC00F0B2FB9A
:10286000002000F011FB00F085FB0E220F23002159
:102870006A446B44117019702D20013100F016FC70
:1028800000F0A0FB7FBDC046C90100201FB56B460C
:10289000DC1D174B20701878002801D100F00CFBCC
:1028A000002000F0F1FA00F065FB01212E2000F07D
:1028B00013FD01222000110000F0D0FB00F0AEFB60
:1028C00000F0ACFB00F07EFB002000F0DDFA00F031
:1028D00051FB0E220F2300216A446B4411701970C2
:1028E0002E20013100F0E2FB00F06CFB1FBDC04662
:1028F000C90100201FB56B46DC1D207000F0D4FA22
:10290000002398422DD0184B1878002801D100F0F0
:10291000D3FA002000F0B8FA00F02CFB01212B20A4
:1029200000F0DAFC01222000110000F097FB00F01B
:1029300075FB00F073FB00F045FB002000F0A4FAEB
:102940000E2400F017FB0D2300226B446C441A7018
:102950002280012122002B2000F0A8FB00F032FB96
:102960002388180004B010BDC901002073B56B4660
:10297000DD1D0E001400287000F096FA002801D129
:10298000208076BD164B1878002801D100F094FA0B
:10299000002000F079FA00F0EDFA0221452000F065
:1029A0009BFC00220121280000F06FFC0122022183
:1029B000200000F06AFC00F031FB00F003FB002077
:1029C00000F062FA00F0D6FA22003100452000F053
:1029D0002AFC00F0F7FA2088431E9841C0B2D0E7E5
:1029E000C90100207FB56B46DC1D224B2070187892
:1029F0000E001500002801D100F05EFA002000F062
:102A000043FA00F0B7FA0221462000F065FC0022EC
:102A10000121200000F039FC30000122290000F0E3
:102A200034FC03262C00093434400135002C02D03C
:102A300000F0F4FAF6E70E250F2600F0C3FA6E4414
:102A400020006D4400F020FA00F094FA32002900D2
:102A500046202C70347000F05DFB00F0B3FA337840
:102A60002000002B04D02878013844426041C0B2D5
:102A700004B070BDC90100207FB56B46DC1D1C4B46
:102A800020701878002801D100F016FA002000F01C
:102A9000FBF900F06FFA0121392000F01DFC012242
:102AA0000E250F2620000024110000F0D7FA6E44F6
:102AB00000F0B4FA6D4400F0B1FA00F083FA00209F
:102AC00000F0E2F900F056FA3200290039202C70AB
:102AD000347000F01FFB00F075FA33782000A34239
:102AE00004D02878013844426041C0B204B070BDBF
:102AF000C9010020134B13B51878002801D100F04C
:102B0000DBF9002000F0C0F900F034FA00213F208A
:102B100000F0E2FB00F056FA002000F0B5F900F0FA
:102B200029FA6B469C1DFF2323706B460022073356
:102B30001A70012122003F2000F0B8FA00F042FA9A
:102B4000207816BDC901002070B586B005001400BC
:102B50000E000B22002102A803F0E3FB09232A0A3E
:102B60006B441D705A702A0C2D0E9A70DD700E2366
:102B70006B441E80360C5E801323220A6B441C704B
:102B80005A70220C240E9A70DC70154B18780028AD
:102B900001D100F091F9002000F076F900F0EAF997
:102BA0002120012100F098FB6B460122D81DFF2354
:102BB0001100037000F052FA00F030FA00F02EFA23
:102BC00000F000FA002000F05FF900F0D3F902AA4B
:102BD0000321212000F0CDFA00F0F4F906B070BD19
:102BE000C901002070B586B06B46DE1D0C001500D3
:102BF00030700622002103A803F093FB0D23220A64
:102C00006B441C705A70220C240E9A70DC701223D4
:102C10006B441D802D0C5D80134B1878002801D16A
:102C200000F04AF9002000F02FF900F0A3F901218B
:102C30003A2000F051FB01223000110000F00EFAA2
:102C400000F0ECF900F0EAF900F0BCF9002000F027
:102C50001BF900F08FF903AA02213A2000F089FA4B
:102C600000F0B0F906B070BDC9010020F7B51D0035
:102C70001F4B070018780C001600002801D100F047
:102C80001BF9002000F000F900F074F90221112076
:102C900000F022FB21000022380000F0DFF93000B4
:102CA0000122290000F0DAF9032606346419250010
:102CB000354003D000F0B2F90134F8E700F082F9B2
:102CC000280000F0E1F800F055F96B469C1D220049
:102CD00007330121112025701D7000F0E7F900284D
:102CE00001D1FF23237000F06DF900202056FEBDB6
:102CF000C9010020134B13B51878002801D100F04A
:102D0000DBF8002000F0C0F800F034F900212020AA
:102D100000F0E2FA00F056F9002000F0B5F800F0FB
:102D200029F96B469C1DFF2323706B460022073355
:102D30001A7001212200202000F0B8F900F042F9B9
:102D4000207816BDC901002070B50500054C064A63
:102D500020000649FFF7F8FE2800210002F0CAFB18
:102D600070BDC046C4010020BC010020C00100208D
:102D7000204B73B504001878002801D100F09CF8AE
:102D8000002000F081F800F0F5F80121342000F077
:102D9000A3FA200003F092FB0122C1B2200000F050
:102DA0005DF9200003F08AFB0326441D2500354011
:102DB00003D000F033F90134F8E700F003F92800FC
:102DC00000F062F800F0D6F86B469E1D9D7132004F
:102DD0000733012134201D7000F068F9C4B200F0FF
:102DE000F1F8002C04D03478013C60424441E4B254
:102DF000200076BDC9010020FF2130B587B00B004F
:102E0000050000910A0004A802F05AFB174B18783D
:102E1000002801D100F050F8002000F035F800F053
:102E2000A9F80021352000F057FA00F0CBF8002077
:102E300000F02AF800F09EF80B2300226B441A7071
:102E4000012103AA352000F031F9041E08D003A99E
:102E5000280002F04FFB059B6C68E41A631E9C413E
:102E600000F0B0F8200007B030BDC046C901002016
:102E700010B50C00FFF77CFF03000020834202D056
:102E80002000FFF7B9FF10BD10B5040002F09AFD55
:102E9000044B187803F092F8002802D0002CF7D0E9
:102EA000F4E710BD2B00002010B51E2003F086F8BB
:102EB000431E984110BD0000F8B5274B1B78002B2E
:102EC00001D0002847D01C23244E254F3370254CB9
:102ED00007333B70BD33237000F08AFB224DDF289F
:102EE00004D801232B702378DB4323703078012131
:102EF00002F0ECFF3878002102F0E8FF2078012191
:102F000002F0E4FF01211E2002F0E0FF01211E205B
:102F100003F028F83078012103F024F8297820788C
:102F200003F020F80A2002F083FD2978012520789B
:102F3000694003F017F80D4802F07AFD00211E20C9
:102F400003F010F800211E2002F0C0FF084800F036
:102F5000BFFA014B1D70F8BDC90100202D000020F3
:102F60002B0000202C000020C8010020EE020000F1
:102F7000EC01002013B500246B466A461C71012346
:102F80005371019A0B490C4800F0CAFA0B4B21000F
:102F9000187802F0E7FF02F015FD0400084B1878DE
:102FA00003F00CF8012804D002F00CFD001B0428EB
:102FB000F4D913BD00127A00EC0100202D0000208E
:102FC0002B00002010B5044B0121187802F0CAFF35
:102FD000024800F025FA10BD2D000020EC01002071
:102FE00007B56B46D871D9790248C9B200F0A0F98B
:102FF0000EBDC046EC01002010B50400FF20FFF715
:10300000EFFF207010BD70B50C0005000800FFF741
:10301000F3FF2078401B4342584170BD13B56B4607
:10302000DC1D002320002370FFF7E6FF207816BD8B
:1030300070B50500084CFFF7F1FFEF2808D0013C00
:10304000002C01D0A842F6D1401B4342584170BD2C
:1030500001204042FBE7C046E9030000F8B5050047
:1030600008000E0017002C00FFF7BAFF631B9E42FA
:1030700004DD2078FFF7B4FF0134F7E7012F02D118
:10308000EE20FFF7ADFFF8BD10B50400000AFFF712
:10309000A7FFE0B2FFF7A4FF10BD10B50400FF20AA
:1030A000FFF79EFF002C00D0207010BDF0B585B05A
:1030B0001F0002ABDC1D00230500E020019116007B
:1030C0002370FFF7B5FF002802D1002005B0F0BD46
:1030D0002000FFF791FF802223781543AB42F4D103
:1030E0002000FFF789FF2378019A9342EDD1380041
:1030F000FFF7D3FF35003A78AB1B9A4204DD280076
:10310000FFF77AFF0135F6E72100EE20FFF77BFF9E
:103110000120DBE7F7B56B46DC1D00230500E0204E
:103120000E0017002370FFF783FF002801D1002055
:10313000FEBD2000FFF760FF802223781543AB42DD
:10314000F5D1FFF76BFF00280DD03800FFF7A5FF82
:1031500035003A78AB1B9A4205DDFF20FFF740FFB0
:1031600028700135F5E72100EE20FFF74CFF012024
:10317000DEE7F0B587B004ABDE1D00230500E020DC
:10318000039114003370FFF753FF002802D1002091
:1031900007B0F0BD3000FFF72FFF802233781543D2
:1031A000AB42F4D1FFF73AFF01900028EFD005239E
:1031B0004343E3180293029B9C421AD0FF20FFF77F
:1031C0000FFF002720702378BB4210DDA3786578BD
:1031D0001B022B43E578FF202D042B4325792D0678
:1031E0001D43FFF7FDFEED1928700137EBE70534AD
:1031F000E1E7019B039A9342C9D13100EE20FFF72A
:1032000002FF0120C4E770B50500FF20FFF7E8FECC
:103210000400FF20FFF7E4FE2402204380B2002DCB
:1032200000D0288070BDF0B5002485B002AB070047
:10323000DD1DE020019116002C70FFF7F9FEA04281
:1032400002D1002005B0F0BD2800FFF7D5FE802296
:103250002B781743BB42F4D1FFF7E0FE00280ED0D5
:103260003000FFF7D0FF3388A34208D9019BFF202D
:103270001F19FFF7B5FE01343870A4B2F3E7290037
:10328000EE20FFF7C0FE0120DCE770B504000D0062
:1032900008001600FFF7F8FE6519AC4204D020784C
:1032A000FFF79EFE0134F8E7012E02D1EE20FFF772
:1032B00097FE70BD70B5040002200D00FFF790FE70
:1032C000200AFFF78DFEE0B2FFF78AFE012D02D142
:1032D000EE20FFF785FE70BD70B50400E0200D0004
:1032E000FFF77EFE7F202040FFF77AFE2800FFF7E1
:1032F00077FE002D02D1EE20FFF772FE70BD70B593
:1033000006000C008D18AC4207D0336821789B680A
:103310003000984720700134F5E770BD7047704762
:1033200010B50400406800F0E9FA0023237610BDD0
:1033300010B5406800F007FB10BDF8B50500406807
:103340000C0000F0FBFA2B68E7B2260A9B68012804
:1033500010D139002800FF2798472B68BC4304434D
:103360009B6831002800984703022000384018432A
:1033700080B2F8BD310028009847FF262B68000274
:10338000344004439B68390028009847B4432043E5
:10339000EEE710B5040002F0C3FB200010BD0000F2
:1033A00010B54B1C0BD0102909D0EFF3108472B666
:1033B000102905DD02234376002C00D162B610BD32
:1033C0000123427E1A43427618224A43044989184F
:1033D00016228A569340C2691343C361ECE7C04684
:1033E000EC6600004B1C17D0102915D0437E9B07BC
:1033F00012D4EFF3108272B618234B430749C91851
:103400000123897D49B28B40C1699943C16100D1D3
:103410004176002A00D162B67047C046EC660000D3
:10342000437E002B05D09A0704D5837E002B00D065
:1034300062B67047DB07FCD5C369024A9BB2D36012
:10344000F7E7C04600180040037E002B04D1437606
:103450008376C36101330376704700007FB503694B
:1034600002AE04000D00029172608B4203D1828A89
:10347000B3889A4226D0200006223100103002F094
:1034800047FF606800F051FA7379E17A013B581EFA
:103490008341227B00936068002300F087FB33792F
:1034A0000021013BDBB2022B01D8074AD15C074B5C
:1034B0002A009D4200D91A00606800F007FA60688F
:1034C00000F029FA7FBDC046AC660000001BB700C3
:1034D00070B518260400FFF7B7FF33000821207AE3
:1034E0000D4D4343EB18595602F080FD330008217F
:1034F000A07A4343EB18595602F078FD0821607A10
:103500004643AD19695602F071FD044B200006CB0D
:10351000FFF7A4FF70BDC046EC6600000C0200205F
:1035200007B5437E00910192002B07D09A070AD578
:10353000EFF310835A425341837672B60099019A91
:10354000FFF78CFF07BDDB07F8D5C369014A9BB2C3
:103550009360F3E700180040F7B500240125194BEC
:10356000194A5D711A601C71184B19480833019390
:103570000360184B184F4360184B194E0381092301
:103580003A0031004575046104758372063B047688
:10359000C472037302F0D8FD1248134B019A4360C2
:1035A000124B457503811D233100026004613A000E
:1035B000047583721A3B05730476C37202F0C4FD6E
:1035C000F7BDC0460C02002000093D00B0660000B7
:1035D000CC010020A4060020000000200A08000002
:1035E0001F330000EC010020BC0600201B1A000065
:1035F0002420704770B50121202002F067FC0021D3
:10360000202002F0AFFC0A2002F012FA0021202054
:1036100002F05CFC642002F00BFA202002F0E8FBD0
:10362000962305009B002F4C984222DD2E49200056
:1036300000F0E2FA200000F0A0F903210B2002F0D4
:10364000D5FC03210C2002F0D1FC00226B212000CC
:1036500000F0C8F90121200000F006FA1B2120002B
:1036600000F002FA2000032100F0A6F9200000F08B
:1036700099F91D49200000F0BFFA200000F07DF903
:1036800003210B2002F0B2FC03210C2002F0AEFC5F
:1036900000226B21200000F0A5F90721200000F096
:1036A000E3F996232B219B009D4200DD2039200069
:1036B00000F0DAF90321200000F07EF9200000F08C
:1036C00071F901211E2002F001FC01211E2002F0EF
:1036D00049FC01211F2002F0F9FB01211F2002F00B
:1036E00041FC70BDAC060020A086010010B5024868
:1036F00001F001FE10BDC0461402002010B50248C2
:1037000001F0F9FD10BDC046580400207FB51949ED
:10371000194800F04BF81949194800F047F81949C1
:10372000194800F043F81949194800F03FF8194CBE
:103730001949200000F03AF8184E1949300000F0FD
:1037400035F8012503233100019500930D220B3339
:10375000144801F049FD1D230393013B02931A3BDA
:103760000193009518331B2221000F4801F0F8FC4B
:103770007FBDC046000800429C060020000C0042AD
:10378000A406002000100042AC06002000140042F5
:10379000B4060020BC06002000180042C406002029
:1037A000001C004214020020580400200023037172
:1037B000016070479446F0B59E1E721E96416246A7
:1037C000056892072F6836063A4332432A60072578
:1037D00005AC24780068A4012940214342680024F4
:1037E000022B00D05C03114321434160F0BD30B592
:1037F000C0250368AD031C6812052A402243C0247B
:103800000904A40221401143196003685A68144353
:103810005C6030BD0123026811680B4313600368CC
:103820001A68D207FCD4DA69D207F9D470470223A8
:10383000026811680B4313600268D3699B07FCD4CC
:1038400070470268137E9B0702D40379002BF9D1DD
:10385000002303717047002203685A83704703688E
:10386000187E4007C00F70470368187EC009704774
:10387000802302685B42117E0B4313767047036816
:10388000588B8007C00F704702230268518B0B438F
:10389000538370470368187EC007C00F70470368E2
:1038A000188DC0B2704703681A7ED207FCD589B262
:1038B00019850123037118007047012203689A7566
:1038C0007047012203681A757047000070B5012621
:1038D00004684B0833403140256809075B070B43F8
:1038E0002B43236004685100034802F03FFC013879
:1038F000C0B2207370BDC046006CDC0201230268B8
:1039000011680B43136003681A68D207FCD4DA69A4
:10391000D207F9D470470223026811680B43136081
:103920000268D3699B07FCD470470368DA69920781
:10393000FCD402211A688A431A6070470368186829
:103940004000C00F70470268936A5B0A5B0219432C
:10395000916203681A7E5207FCD5986AC0B270471C
:103960000123026811680B43136003681A68D207C9
:10397000FCD4DA69D207F9D47047022302681168CF
:103980000B4313600368DA699207FCD430215A8B29
:103990008A43110010220A435A830268D3695B07E5
:1039A000FCD470470221026813688B4313600268DD
:1039B000D3699B07FCD47047032230B503681140DC
:1039C0001C68074D5A6809042A40E4061143640F35
:1039D0005960052C03D10268D3695B07FCD430BD64
:1039E000FFFFFCFF70B5056804006B8B9B069B0F07
:1039F000022B0DD06B8B00209B069B0F032B32D02C
:103A00006B8B9B0704D56B8B9B069B0F012B2AD1DD
:103A10006B6A49001143DB0AC9B2DB020B436B62DC
:103A20002368002A13D11A7ED207FCD55B8B9B0634
:103A30009B0F022B04D0490800222000FFF7D2FF81
:103A40002368588B4007C30F012058400BE0187EB5
:103A50008007C00FF4D11A7ED207F8D5C02259686A
:103A600092020A435A6070BD0368283319700268D5
:103A7000107EC007C30F508B002B06D1C007C00FAC
:103A800008D1538B9B07F3D570474007C30F012024
:103A90005840F9E71800F7E70368214A30B5934228
:103AA0002FD0204A93422FD01F4A93422FD01F4A33
:103AB00093422FD01E4A93422FD01E4A93421FD1C9
:103AC0000E2319220121032599401B48C0240160BF
:103AD00099082B40AB40FC359D4089000918A40093
:103AE0000859A843C0259D402B0003430B51802358
:103AF000DB011A43114B5A805A7852B2002AFBDB81
:103B000030BD09231422DDE70A231522DAE70B234F
:103B10001622D7E70C231722D4E70D231822D1E76A
:103B200000080042000C0042001000420014004255
:103B300000180042001C004200E100E0000C0040C0
:103B4000F8B504000F0016001D00FFF7A5FF2000C8
:103B5000FFF760FE1C21BB000B4071072268090CB7
:103B60000B431360842322689375012F1AD110210F
:103B7000012E00D008390C4B69431868C00002F0D0
:103B8000F5FA0722216802408B895203DB04DB0C23
:103B900013438B81226803049089DB0C400B4003A4
:103BA00018439081F8BDC04640000020F7B50600DC
:103BB000019308AB1F780D001400FFF79FFE300043
:103BC000FFF76AFFC022240592031440BA070C27AE
:103BD00017433C43C0270722BF022D0433683D40F2
:103BE00025431D60019B316813401A0080239B020E
:103BF00013434B60F7BD0000F8B504000F00FFF75A
:103C00004BFF2000FFF7ACFE1422236879001A60F6
:103C10000C4B25681E68300002F0A8FA0A4904001F
:103C2000300002F0A3FA7D23FA215843C90002F0C4
:103C30009DFAFF23241AE868053C1C40984304437E
:103C4000EC60F8BD4000002040420F0000207047AB
:103C500070B50F26CB1D013902003240D5B22C00C1
:103C600000093034092A00DD07341C70013B8B4207
:103C7000F2D170BD10B50C000B4B1868FFF7E8FFD0
:103C800021000A4B08311868FFF7E2FF2100084BBA
:103C900010311868FFF7DCFF2100064B1831186857
:103CA000FFF7D6FF202010BD0CA0800040A08000B0
:103CB00044A0800048A0800008B4024B9C46103805
:103CC00008BC6047753C00003F20704713B56B4649
:103CD0000268D9710733546819000122A04716BD44
:103CE00070B50A260B7892B06E44023305000B7053
:103CF0003C220021300002F014FB394801AC069050
:103D0000384824210790062020776846364AA17457
:103D10002281364A364BA281FD3AFF3A8018C1779C
:103D2000684623390630C17768460730C17702A854
:103D3000C1770720F277032608316944C87703A9C1
:103D4000CE7710212B366E443170092621851F3124
:103D500069440E700CA9053E0E70332123800223A6
:103D600069440B7006360DA90E7022493536A186BE
:103D70003B216E44307010A86274E27702703D32CD
:103D800069446A440B70137040210022E370237170
:103D90006371A37341336B44218719705A702B7D73
:103DA000C039A370A37263770133DBB2A3776A7D56
:103DB0000B200D0068441543C5773120684403701B
:103DC0003A23501C6B441870412302320A436B445F
:103DD0001A7021004222084800F0A4FD12B070BD04
:103DE0001001042402060524090400000102000059
:103DF000080B0000070500002807002008B4024B4C
:103E00009C46103808BC6047E13C000070B5027D5C
:103E10000B790C0000259A420BD10B784E78A12B20
:103E200009D1212E05D107221B491C4800F07AFD3B
:103E30000135280070BD212BFBD1202E22D1072275
:103E40001549164800F0B0FC9622134BD2001968B1
:103E500091421DD1DB79DB071AD4FA2002F026F952
:103E600000210E4800F066FE0125232EE1D1E37803
:103E7000A2781B0213430A4A00210848136000F08D
:103E800059FED6E7222EEFD18A78034BDA71DBE7B1
:103E900002F016F9E4E7C0463400002028070020AD
:103EA0003000002008B4024B9C46103808BC604724
:103EB0000D3E000010B5417D006A013100F0ACFB01
:103EC000034B1B6801335A1E9341181810BDC0469E
:103ED0003C00002010B5417D006A023100F0B2FBC9
:103EE00010BD10B5417D006A023100F079FB10BDB4
:103EF00070B50D00417D0400130002312A00006AF4
:103F000000F066FC002801D10123636070BD000051
:103F100010B5054C23685A1C04D103685B699847A7
:103F200003002060180010BD3C000020074A030079
:103F3000106810B5411C03D001235B42136010BD13
:103F4000597D186A013100F0F3FBF8E73C000020CE
:103F50000020704770477047FA239B0010B58360BC
:103F60000F4B0022C3820300283383610D4B0400F2
:103F70004260C2611800403323610830631D216232
:103F80002060DA778323A362813BE362803323637B
:103F900001F036FB2100103101F003FB200010BDC1
:103FA000030200004C6A0000022110B5094B1A6898
:103FB000437D5B01D318FF339C7A21439972437D83
:103FC0000133DBB25B01D3180122FF33997A0A4334
:103FD0009A7210BDE00B00207047000010B501F090
:103FE000F1FCF423FF330024984207D9044B0A2044
:103FF000DC79631E9C41E4B201F01AFD200010BD83
:104000003400002010B502490248FFF7A5FF10BD9B
:1040100028070020CC060020704710B5040001F0EE
:104020007FFD200010BD0000F0B5822919D1C3B278
:10403000294D5A01AA189169284C80010C40C021D1
:104040008905214391612649083340187021506148
:1040500028685B011A5C8A43110030220A431A5413
:10406000F0BD0029FCD1C026C1B21B4C4B01E318A6
:104070009A681A4DB6052A4032439A60194A80015F
:1040800082185A600A000727246808325201115D1D
:10409000B9430F000121394311559F6910493D4033
:1040A00040182E439E6158617020115D81430800C5
:1040B00010210143115599680B48A218084080212E
:1040C0004903014399609968890B890399604023EA
:1040D00011790B431371C3E7E00B0020FFFFFF8F43
:1040E0005407002014090020FF3F00F0EFF3108375
:1040F00003600123436072B670470368002B02D14E
:1041000062B6BFF36F8F704773B5836D0400002BE9
:104110001BD10600A83635786846FFF7E7FF019BFC
:10412000EDB2013B02D33578EDB2FAE76846019370
:10413000FFF7E3FF002D01D1002076BD2300A4335B
:104140001868A0342368C01AF7E76846FFF7CEFF67
:1041500022000025019BF432013B02D31578EDB219
:10416000FAE768460193FFF7C8FF002DE4D023006B
:10417000F0331868EC34E5E710B5436D4468DBB202
:104180005A01A21891680948083308408021490360
:104190000143916091685B01890B890391602268FA
:1041A000D318402219790A431A7110BDFF3F00F05D
:1041B000F7B5436D4268DBB219000400083110689E
:1041C00049014118C979C90711D55B01D218936813
:1041D0009B049B0C0CD12000FFF7CEFF63681A688C
:1041E000636DDBB208335B01D3187F22DA71F7BD50
:1041F000E16D002923D12100A4310B6023000125AA
:10420000AC33E56568465360FFF770FF2600200079
:104210002100019BA836013BF430F5315A1C33D004
:10422000357002785F1ED2B20A700A78002A04D173
:1042300020000193FFF7A0FFE8E73B00EEE7210035
:10424000F0310B600023E365230060335360684660
:10425000FFF74CFF0125260020002100019BF436CA
:10426000013BA830F5315A1C0ED0357002785F1E24
:10427000D2B20A700A78002A04D120000193FFF715
:104280007BFFE8E73B00EEE768460193FFF735FF69
:10429000A4E737B56B46DC1D00230D00237001F049
:1042A000AFF9210001F03AF92B681818286020783E
:1042B0003EBD00002023F7B5474A0500D1690F2015
:1042C0000B43D361012245490B7813430B70444BD8
:1042D00019788143197006211C78214319704149CE
:1042E0000C7822430A701A7802401A7060221978FA
:1042F0000A431A703C4B3D4A5A805F78FF09FCD153
:104300003B4801F059FB01233A4C3B4E22683000F8
:1043100011780B43137080223900520002F001F82B
:1043200022689378DB07FCD456621F26334B1B6848
:10433000590B980C9B01314030405B0FB14200D1CA
:1043400005211F2800D10238072B00D1043B314042
:104350008901178D01912A4930400F400199394355
:104360001185118D0700B143080038431085118D68
:104370001803244B7F260B4003430C20138508238E
:10438000D17881430B430321D3702268D3788B43C8
:1043900001390B43D3702268137833401370042320
:1043A00022681678334313702268C1241389A4004D
:1043B00083431548138103591B021B0A03518023B1
:1043C0000360137811481943012311702B700021E9
:1043D000FFF702FEF7BDC04600040040584400410C
:1043E0003C44004159440041000C0040064000009C
:1043F000454D0000E00B0020E40B0020246080000D
:104400003FF8FFFFFF8FFFFF00E100E0CC06002038
:104410000078002810D00121084B1B681A898A43B4
:104420001A810822198B0A431A830422198B0A4322
:104430001A830022024B1A607047C046E00B00202E
:10444000D80B002010B50F4A93699B0B9B03936117
:1044500013680222FF331A729879823A02439A71E2
:104460001A7A9207FCD57F24074A2140937A0800E4
:10447000A3431900802301439172917A5B420B435D
:10448000937210BDE00B00200050004110B50C00ED
:1044900001F0B6F8210001F074F8002804D1034AB5
:1044A00093699B0B9B03936110BDC046E00B0020FA
:1044B000F8B50D00832A19D1CBB23B4C5A01A21892
:1044C00091693A48AD010840C021890501439161D5
:1044D000374920686D187021083355615B011A5CFB
:1044E0008A43110040220A431A54F8BD022A55D1CA
:1044F000304A8B009858002802D003685B699847BF
:10450000F82001F009FB0400274E2B4B46600360A6
:1045100040220021083001F004FF22000023A032D5
:10452000A3646565E3642365A365E3655360D364B1
:104530001372136013654C3213725372FF222B00F7
:104540001340590171188868184F08330740C0207C
:10455000800538438860306807265B01195CAD0030
:10456000B1430E000321314319542300616D60688B
:1045700011404901411860334B60616D63680A4026
:104580001B6852019B180122FF33997A20000A43CD
:104590009A72FFF7F1FD074B5C51A6E71100280066
:1045A000FFF742FDA1E7C046E00B0020FFFFFF8FB1
:1045B000540700202C070020A46A000070B50500F5
:1045C0000124064BA200D258002A06D02100280060
:1045D0000134FFF76DFF0A2CF3D170BD00070020F6
:1045E0000B4BCAB20B488901C9185301C318596152
:1045F00099690832890B89039961036852019A18F5
:104600000223D3715179823B0B4353717047C046EB
:1046100054070020E00B0020084B8A00D05810B54A
:10462000002803D003689B68984710BDC9B2044BAB
:104630004901591888688004800CF6E72C0700208F
:10464000E00B002010B50C00FFF7E6FF00280CD0AF
:10465000064BE4B21B68083464011C19802362799C
:104660005B42134363710223E37110BDE00B002032
:10467000F0B51C002A4B85B01B6807000D000292A4
:10468000002B4AD0274B8A00D058002808D0036856
:1046900022005B68029998470400200005B0F0BD35
:1046A0003800FFF7B9FF844204D929003800FFF72A
:1046B000B3FF04000121EBB21B4E03935B01019396
:1046C000F21893689B0B9B039360019A33680298DE
:1046D0009B18FF335A7A0A435A72144BA901C9181E
:1046E000220001F015FE002CD7D029003800FFF77A
:1046F00093FF0028D1D14021039B326808335B012E
:10470000D3181879014319710121D971019BD3186C
:10471000FF339A7A0A439A72BFE701246442BCE7E6
:10472000D80B00202C070020E00B002014090020EB
:1047300013B56B46DC1D22000123FFF799FF01280A
:1047400001D1207816BD01204042FBE770B5CBB205
:10475000124A13485C018901891802195160916855
:10476000104D08330D4080214903294340259160B5
:104770009168890B8903916001685A018A1816793A
:104780003543157195796D06FCD55B01C918CB7958
:10479000DB07FCD500198068C0B270BD1409002089
:1047A000E00B0020FF3F00F070B50D000021140069
:1047B000FFF7CCFFA04200D9200000230349A34209
:1047C00003D0CA5CEA540133F9E770BD1409002034
:1047D000F0B51E003A4B85B01B680F000192002B0C
:1047E00035D08023DB019E4231D80025354B8A012C
:1047F000D3180293002E2CD0334B1B680393FF2356
:104800003B401C0000930834039B64011C19A379EE
:10481000DB0921D02D4B2E49186801F0A7FC2D4B48
:104820001721584301F0A2FC2B4BE279920713D4D5
:10483000DA5D002A01D10138F7D20122DA55009B56
:104840005A01214B9B189A69920B92039A61012598
:104850006D42280005B0F0BD00221F4B3400DA5530
:104860003F2E09D9009B40245A01174B9B188022E8
:10487000996912060A439A6122000199029801F08F
:1048800047FD009BA1045A010F4B890C9B18029A0B
:104890002D195A619A69361B920B92030A439A6149
:1048A000009B039A08335B01D3180222DA7159790D
:1048B000823A0A435A71019B1B1901939AE7C04639
:1048C000D80B002054070020E00B002040000020FF
:1048D00040420F00701101004907002070B50D0023
:1048E0001C000D4BAE01F61811003000220001F043
:1048F0000FFDEDB209496D014D196E61AB69084AB2
:1049000020001340AB61AB69A2049B0B920C9B038C
:104910001343AB6170BDC04654070020E00B00207C
:10492000FF3F00F0F7B5104B01901B780F0015000A
:10493000002B0CD10D4B16001C78002C09D00C4E0E
:104940000C4834882018641901F0E2FC34802800F7
:10495000FEBD002EFBD03A19330000210198FFF76D
:10496000BDFF2418361AF4E7D40A0020D50B002026
:10497000D60B0020D50A0020F8B50F001600002441
:10498000012A26D9100001F0AFFC0500380001F023
:1049900095FD032302220130400028706B7096427F
:1049A0000DD9397800290AD0531CDBB20137A9543C
:1049B0009E4203D00232EC54D2B2F0E7320029001A
:1049C0000548FFF7AFFF441EA041C4B2280001F024
:1049D00095FC2000F8BDC04628070020F0B5002453
:1049E000012685B0184B0F0069461E700500009423
:1049F000FFF74FFC154B01A90B806A3BFF3BCB71C6
:104A00005A330B72009B8C7109334B800E4B4E71E5
:104A100008711C703A00092F0FD00D4F09223E700B
:104A20000C4E280000943480FFF77CFF6946280074
:104A3000FFF72FFC328808493C702800FFF772FF0F
:104A4000012005B0F0BDC046D40A002009020000D4
:104A5000D50B0020D60B0020D50A002070B5CE78EB
:104A600092B005000C00022E0BD18B79C9792C482D
:104A700009021943FFF7B2FF411E8841C0B212B0CC
:104A800070BD00F0BDFD210000F05CFD002803D0EA
:104A9000C117081AC00FF2E7012E0ED1E279A379EF
:104AA00012021A431F49112A13D8D2B2002A10D079
:104AB0002800FFF737FF0120E1E7032EDFD1A378BD
:104AC000002B08D1E279A37912021A431649032A6E
:104AD000EBD90A78ECE7022B08D1E279A37912022C
:104AE00012491A432800FFF747FFC8E7012B05D1F9
:104AF000E279A37912021A430D49F3E7032BBED1E1
:104B00004122010001A801F00CFC00F079FD01A98F
:104B100000F028FDE279A37912021A4301A9E1E726
:104B200028070020E66A0000D66A0000C06A00007C
:104B3000DA6A0000CBB204495B01C9188B699B0B90
:104B40009B038B617047C046E00B002037B5050022
:104B500048780C000B2810D801F0FEFA061B0F2B2A
:104B60000F404561494C5A5D097801AA002906D1D8
:104B7000022311802800FFF7B1FE01203EBD002373
:104B80001380284B1B78012B00D1137002230021C6
:104B9000F0E78A780023012A03D101AA1380224B6F
:104BA000F0E7204A1370214A93699B0B9B039361A2
:104BB000E3E78C78012C06D100211B4B01AA1C7065
:104BC00011702300D6E70120002CD7D1154B174ACE
:104BD000187093699B0B9B039361CFE7897828003A
:104BE000FFF730FCC9E72800FFF738FFC6E70123CD
:104BF0000F4ACCE70B780020DB06BFD12800FFF777
:104C0000DDFCA2780A4B0B481A60FFF7CDF9CAE722
:104C10000123094ABBE78A78074B1A60C3E70020E3
:104C2000ACE7C0464807002050070020E00B0020FA
:104C3000D80B0020CC060020DC0B00203A4BF7B547
:104C40001E780500002E5FD1384C23689A8B12071E
:104C50000DD5082231009A833000FFF7E5F91022C4
:104C60002368FF33997A0A439A72314B1E60236896
:104C70009A8B520701D504229A83FF331A7A92063F
:104C800003D52022597A0A435A721A7AD20623D5BA
:104C900069460800274AC0CAC0C0A268920B9203A6
:104CA000A2604022587902435A7160230A78280092
:104CB0001A422AD1FFF74AFF2368FF33002827D082
:104CC0008022997952420A439A711A7A520603D580
:104CD0004022597A0A435A727F2601252368FF33FE
:104CE0001E722F00236808377F01DB19DB79002B48
:104CF00007D0114BAA00D05800280DD003681B68BC
:104D000098470135082DECD1F7BDFFF7BFFBD3E77E
:104D100020210A4A9171D8E729000948FFF71BF9B9
:104D20002368DF19FE71ECE7D50B0020E00B0020B3
:104D3000D80B0020140900202C070020FF50004150
:104D4000CC06002010B50248FFF778FF10BDC04622
:104D50002807002080235B00038000234360073383
:104D60000372704783000148C01870470007002095
:104D7000836C402B09D03F22036CC154036C013378
:104D800013400364836C013383647047F7B50500F7
:104D90006846FFF7ABF900264022019B013B02D396
:104DA0002E6D961BFAE768460193FFF7A6F9AB6DE7
:104DB0006846002B4FD1FFF799F92900019BA831D4
:104DC000013B5A1C0CD00C785A1EE4B2002C05D1C1
:104DD00068460193FFF791F92000FEBD1300F0E74C
:104DE000684601930024FFF788F92A002900A032C1
:104DF0001368A431B4420ED0086898420BD9280039
:104E0000591CEB181160603319780830C9B2FFF7EC
:104E1000AFFF0134E9E709689942DDD1002313604F
:104E20000133AB656846FFF761F92F002A000021C6
:104E3000019BA837013BF532581CC9D03970107856
:104E40005E1E002805D0117028000193FFF794F929
:104E5000EBE73300F0E7FFF749F92900019BF43154
:104E6000013B5A1C06D00C785A1EE4B2002CAFD07D
:104E70001300F6E7684601930024FFF73EF92A0085
:104E80002900EC321368F031B44202D0086898422D
:104E90001DD8096899429FD1002368461360AB650D
:104EA000FFF724F92F002A000021019BF437013B72
:104EB000F532581C00D18BE7397010785E1E00283F
:104EC00011D0117028000193FFF756F9EAE7280086
:104ED000591CEB181160AC3319780830C9B2FFF7D0
:104EE00047FF0134CBE73300E3E710B50400FFF7D9
:104EF0004DFF206D10BD10B50400FFF747FF236D77
:104F0000002B03D0E36CE418207A10BD012040424E
:104F1000FBE7F7B517000E000400FFF737FF684600
:104F2000FFF7E4F83F2200259446019B013B5A1C01
:104F300019D0BD4215D2226D002A12D00121226D56
:104F40004942002A0AD06046E26CA218117AE26C4B
:104F500001320240E264226D013A22657155013549
:104F6000E7E7013BE3E768460193FFF7C6F828004F
:104F7000FEBD0000014B024A1A607047E00B0020A2
:104F8000005000410120704710B50368014A1B6AB8
:104F9000984710BD13040000FC30006A7047872357
:104FA0009B00C018C36880204000C01A70470300EF
:104FB000FC331A6A002A03D0DB69C018007D7047F1
:104FC00001204042FBE710B504000069FEF722FC17
:104FD00022000023FC329361D36113628722920086
:104FE000A4186360A360E36010BD872310B59B0025
:104FF000C218D368002BFCD10069FEF722FC10BD5B
:10500000F02001403039484248417047F0231B01ED
:105010001940802306209B0099420AD00133FF33B8
:105020000130994205D0802302385B00994200D0BC
:10503000002070470F2001400020012903D00239D1
:10504000481E8141481C70478B23F0B5182685B057
:1050500002919B000400C05C330008214343324DA1
:105060001700EB18595600F0C1FF304B0821E05CE7
:1050700033004343EB18595600F0B8FF2C4BE25C69
:105080000393022A09D11133E05CFF2805D00821DF
:105090004643AE19715600F0A9FF8C26B600A05DFC
:1050A000FF2819D0012100F011FF1822A35D21492A
:1050B0005A43AB56AD18DB0158188D21890060505A
:1050C0001D4901225B188E218900635069688A405E
:1050D0008F21890062501A600122029B1100206911
:1050E000FEF72EFD39002000FFF790FF3900050084
:1050F0002000FFF79FFF390006002000FFF780FF28
:1051000033000090290020690122FEF753FB0B4B6E
:105110002069E25C039BE15CFEF769FB2069FEF716
:1051200086FB05B0F0BDC046EC6600002D02000015
:105130002F02000018440041144400412E020000D8
:10514000802210B504005200002101F0EAF823008B
:105150000022FC335A6020009A60DA6010BD000023
:10516000F0B585B01D000AAB1B78040000930BABB3
:105170001B78160001930CAB1B780F0002930DAB4C
:105180001B78039300234360FA239B008360124B38
:10519000083303601430FFF7D3FF20002130FF30C5
:1051A000FFF7CEFF8B236A469B002761E6540B4B2B
:1051B0001278E5540A4B2000E2546A46094B1279F2
:1051C000E2546A46127A0133E2546A46127B103383
:1051D000E25405B0F0BDC046F86A00002D020000A0
:1051E0002E0200002F020000F7B51D0008AB1B784F
:1051F0000400009309AB1B78160001930023436061
:10520000FA239B008360114B0F00083303601430B6
:10521000FFF796FF20002130FF30FFF791FF8B232F
:105220006A469B002761E654094B1278E554094B06
:105230002000E2546A46084B1279E2548C22313B3A
:10524000FF3B9200A3541032A354FEBDF86A000045
:105250002D0200002E0200002F020000F7B5EFF330
:10526000108300930123019372B680260200FF256C
:10527000019BFC327600013B5C1C0FD0D4685F1EA2
:10528000B44209D054680155546801342C4054602C
:10529000D4680134D460EEE73B00EDE76846019343
:1052A000FEF72BFFF7BD13B5EFF310830093012337
:1052B000019372B6019B5A1E0192002B15D0030078
:1052C000FC33DA68002A0DD09A68845C9A6801324F
:1052D000D2B29A60DA68013ADA606846FEF70DFFEA
:1052E000200016BD01246442F7E701246846FEF75A
:1052F00004FF6442F4E710B504000069FEF7BFFA4A
:10530000002805D02069FEF7CAFA2069FEF7BCFA2A
:105310002069FEF7A4FA00281BD02069FEF7BFFA27
:10532000010020001430FFF799FF8C239B00E35C01
:10533000FF2B0ED02300FC331A6A80235B009B1ADC
:10534000092B06DC8D238F229B009200E358A25884
:105350001A602069FEF79EFA00280ED087239B0072
:10536000E318DB68002B14D020002130FF30FFF75A
:105370009AFFC1B22069FEF796FA2069FEF774FA27
:10538000002805D02069FEF773FA2069FEF763FA5A
:1053900010BD2069FEF795FAEFE70000F8B50400AC
:1053A00000690D00FEF776FA87239B00E6180028B7
:1053B00002D0F368002B34D001278022F36852001A
:1053C000934223D1EFF310833B4210D1174B5B681C
:1053D000DB05DB0DF1D0103B5BB2002B10DAF13AAC
:1053E0001340083B9B08124A9B009B181B682069CE
:1053F000FEF750FA0028E0D02000FFF77CFFDCE742
:105400009B08C0330B4A9B009B58F0E720002130DB
:10541000FF302900FFF722FF2069FEF74EFA012036
:10542000F8BD29002069FEF73EFAF8E700ED00E03C
:105430001CED00E000E100E010B504001430FFF7BF
:1054400032FF8C239B00E35CFF2B0ED02300FC3348
:105450001A6A80235B009B1A0A2B06DD8E238F229B
:105460009B009200E358A2581A6010BDF7B5C31D07
:105470000193002306000D00041D009321780A22E9
:10548000280000F086F92E210700280000F0FEF821
:10549000009B3F18DB190093019B01349C42EDD126
:1054A000F17928000A2200F074F9009B1818FEBD5B
:1054B000024B083303600023436070472C6B0000ED
:1054C00030B503AC2578044CC57108340460017113
:1054D0004271837130BDC0462C6B000010B50400D2
:1054E000034B0422083308C000F012FF200010BD57
:1054F0002C6B000010B504000422043000F008FFFB
:10550000200010BD034B044A08331360002353608E
:105510007047C0462C6B0000E40C002070B50E00F4
:1055200000254468002C0BD0236831005B68200004
:105530009847002802DB2D18E468F3E701256D4247
:10554000280070BD70B50D004468002C08D0236899
:1055500029009B6820009847002802D1E468F4E7FE
:10556000200070BD70B50D004468002C07D0236882
:1055700029002000DB689847E4682D18F5E72C70B7
:1055800070BD70B50D004468002C08D02368290058
:105590001B6820009847002802D1E468F4E7200047
:1055A00070BDF8B542788B790D00017A9B18040024
:1055B00000208B4222DC6368834219D1656000269B
:1055C00023786A71EA792B719B182370AB79B34207
:1055D00013D9AB68B7006078DF19FFF7C3FB3B68EE
:1055E000013603606378F6B201336370EEE70B00B7
:1055F000D9680029FBD1DD60E1E70120F8BD00009A
:1056000070B50126054D064C2B68334203D12000AE
:10561000FFF7A0FB2E60200070BDC046EC0C002000
:10562000F00C0020F7B506000D000C008B1801935C
:10563000019B671B9C4207D0336821781B683000B0
:10564000984701340028F3D13800FEBD70B504003E
:1056500008000D0000F032FF2368020029005B689B
:105660002000984770BD10B50B1E02D0FFF7EEFF6B
:105670000300180010BD10B503688A685B680968EC
:10568000984710BD10B5FFF7EEFF10BD10B50368C9
:105690001B68984710BD0B0010B50A68010012681E
:1056A0001800904710BD000010B50249FFF7CEFF6B
:1056B00010BDC046386B000070B50400FFF7D3FF83
:1056C00005002000FFF7F0FF401970BD70B5050020
:1056D000FFF7E1FF04002800FFF7E6FF201870BD88
:1056E000F0B58BB06B461500002205330600DA7763
:1056F0000800012D00D80A2509AC290000F0BCFDE6
:10570000CAB2130037330700DBB2092902D81300ED
:105710003033DBB2013C2370002FEED1210030008A
:10572000FFF7A1FF0BB0F0BDF8B506000C00151E89
:1057300004D10368C9B21B689847F8BD0A2A0CD186
:1057400000290BDA2D21FFF7A1FF614207002A0093
:105750003000FFF7C5FF3818EFE7D2B22100300064
:10576000FFF7BEFFE9E770B50400FFF7DDFF0500B6
:105770002000FFF799FF401970BD10B5002A04D131
:105780000368C9B21B68984710BDD2B2FFF7A8FFE3
:10579000FAE710B5FFF7F1FF10BD10B5040000687F
:1057A000002801D000F0AAFD200010BD10B50400B3
:1057B0000068002801D000F0A1FD00232360A36051
:1057C000636010BD70B504000D000068013100F089
:1057D00059FE031E01D0012028C470BD036810B516
:1057E0000400002B04D043688B4201D3012010BD7C
:1057F0002000FFF7E7FF0028F9D0A368002BF5D1C0
:1058000022681370F2E770B50E0011000400150055
:10581000FFF7E4FF002804D12000FFF7C7FF2000B6
:1058200070BD2A003100A560206800F071FD0023E2
:105830002268A1685354F2E7002370B504000D00FC
:10584000036043608360994207D0080000F036FE91
:10585000290002002000FFF7D6FF200070BD10B520
:105860000B000400884205D00968002904D09A681A
:10587000FFF7C9FF200010BDFFF798FFFAE70023EC
:1058800010B50400036043608360FFF7E8FF200069
:1058900010BDF7B504000F001600002903D1002346
:1058A00001930198FEBD01230193002AF9D083687A
:1058B000D5182900FFF792FF0028F0D02368A268CE
:1058C00039009818320000F023FD00222368A560FB
:1058D0005A55E6E710B58A680968FFF7DAFF10BD88
:1058E00070B5050008000C0000F0E8FD2100020082
:1058F0002800FFF7CEFF70BD002310B5994202D0FB
:10590000FFF7EEFF0300180010BD1FB504000A22C8
:105910000800694600F0DCF869462000FFF7E0FF68
:1059200004B010BD1FB504000A220800694600F04B
:10593000A4F869462000FFF7D3FF04B010BDFEE7CE
:10594000034B10B51B68002B00D0984710BDC04614
:10595000FC0C002070B50F490F4CA14204D100F09F
:10596000E3F800F0B9F8FEE70C4D00238D42F6D0C5
:10597000CA18E818A24205D3094B8242EFD0094960
:10598000002204E0006804331060F1E704C38B4296
:10599000FCD3E4E700000020E0000020A06B000042
:1059A000E0000020140D002010B500F064F800287D
:1059B00001D100F055F810BD014B18607047C0468A
:1059C000FC0C0020014B18687047C046000D0020F9
:1059D000F7B51348012284461249134C8E68636858
:1059E00005689B0E1340019288686268019F920EC1
:1059F0003A4067463F6893420ED1BD420CD1864281
:105A00000AD35B19FA254868AD00861B07486B432B
:105A10007043000DC018FEBD3D0013000600E3E713
:105A2000000D002010E000E000ED00E05555000002
:105A300070B5041E10D0FFF7CBFF050000F01AF878
:105A4000FFF7C6FF054B401B9842F7D9FA23013CEC
:105A50009B00ED18002CF3D170BDC046E703000099
:105A600010B5034A13680133136000F031FB10BD19
:105A7000000D0020704700207047F0B50D008BB07E
:105A8000170000290ED0931E222B1FD801AC260030
:105A90002300002809D1A64207D02A00B34210D81B
:105AA0000023137028000BB0F0BD390000F0E4FBB8
:105AB000CBB2092903D8303323700134E8E75733D8
:105AC000FAE7013B197811700132E7E70025E9E7B1
:105AD00010B5FFF7D2FF10BD10B500F0D5F800F0FB
:105AE000DFFBFDF787FD0120FFF7A2FF084C200038
:105AF000FEF7E0FB2000FEF78BFCFCF735FBFCF724
:105B000087FB044B002BFAD000E000BFF7E7C0464C
:105B1000280700200000000010B500F0E5FB10BDD4
:105B200010B500F0EBFB10BD1E2270B5464847498A
:105B3000436893431C3A1343436008238C6923430F
:105B40008B61434C434B9C829C8A14439C82DC684F
:105B50001442FCD00124404A14701578254203D029
:105B600055786DB2002DF8DB01249460547864B24E
:105B7000002CFBDB394C5460547864B2002CFBDB06
:105B80008224E4015480547864B2002CFBDB0224AC
:105B90009C840E34DD682542FCD0314CDC6210243C
:105BA000DD682542FCD09D8C2E4C2C439C84102417
