:102000000080002099590000835900008359000086
:1020100000000000000000000000000000000000C0
:1020200000000000000000000000000083590000D4
:10203000000000000000000083590000ED5900007E
:102040008359000083590000835900008359000020
:10205000835900008359000083590000855900000E
:102060008359000083590000835900008359000000
:1020700083590000413700003137000083590000C8
:1020800083590000835900008359000083590000E0
:1020900000000000835900008359000083590000AC
:1020A00083590000835900008359000083590000C0
:1020B0000000000010B5064C2378002B07D1054B1B
:1020C000002B02D0044800E000BF0123237010BDA4
:1020D000E000002000000000D86C0000044B10B5A8
:1020E000002B03D00349044800E000BF10BDC046E8
:1020F00000000000E4000020D86C000010B50A4C7D
:102100002000303003F06BFB2000243003F067FB2D
:102110002000183003F063FB20000C3003F05FFB5D
:10212000200003F05CFB10BD0401002013B515482E
:1021300000F072FA6E23D52200930A210E33124862
:1021400003F0E0F9114C1249200003F097FB200046
:1021500010490C3003F092FB20000F49183003F0B7
:102160008DFB20000D49243003F088FB20000C4932
:10217000303003F083FB0B4A0B49002004F006F8D3
:1021800013BDC0464801002040010020040100208A
:10219000A4650000B0650000CA650000006600008C
:1021A0005F66000000000020FD20000037B596218A
:1021B0001C4C8901200001F031FF200001F030FFAC
:1021C0000028FAD01849200003F098FA1749200097
:1021D00003F094FA164D174A1749280000F0D5F875
:1021E000032807D01549200003F088FA144803F0AB
:1021F00041FCEFE71349200003F080FA1249200068
:1022000003F062FA2900684600F0AAF86946200047
:1022100003F07EFA0D4B0E48196889B200F0FEF803
:1022200037BDC046F006002030670000426700005E
:10223000600100200C0000201C00002057670000F7
:10224000B80B00006D6700008067000004000020EC
:10225000480100200C23F0B5334C344922688BB080
:10226000534304A8C91803F02CFB314907A803F015
:1022700005FB304E07A8316803F076FB2E4D07A80A
:10228000290003F05BFB2D4907A803F057FB0699D3
:1022900007A803F05CFB290007A803F04FFB04A983
:1022A00007A803F039FB264B264D0293264B02A9C3
:1022B0005B68280001930393244B1A6892B200F0E4
:1022C00015F907A9280003F0F8F9280000F023F910
:1022D00007001F4D1F49280003F0F6F907A9280041
:1022E00003F0EBF91C49280003F0EEF90A2239004B
:1022F000280003F05AFA3368184A01333360236820
:10230000126801332360934201DB00232360FA202B
:10231000800003F0AFFB07A803F061FA04A803F004
:102320005EFA0BB0F0BDC0460001002004010020A1
:1023300006670000FC000020146700000E67000024
:10234000706C0000480100204001002018000020AF
:10235000F00600201667000020670000080000203B
:1023600010B5040003F0C6F8200000F00FFD2000B7
:1023700010BD10B50800110000F09CFD10BD4368B1
:1023800010B5002B00D0984710BDF8B50500080027
:102390000E00170004F0B4F80400380004F0B0F8A0
:1023A000E1B2C3B23A00300000F082FC0424431CC6
:1023B00014D003F029FB0024060003F025FB2B6852
:1023C000801B98420AD22800FFF7D9FF642003F04F
:1023D00051FB00F0B1FC04000228EED92000F8BD4A
:1023E0000022024B024906C37047C046600100202C
:1023F00050C300000020704710B503689B6B9847DE
:1024000010BD4069704713B56B460268D971073338
:10241000546819000122A04716BD7047F8B5037C27
:1024200004000F00FF2B02D003685B6A984700F09E
:1024300083FB00250600FF2808D001000122380098
:1024400000F084F965612674678201352800F8BDC3
:10245000F7B50192037C04000F00FF2B02D0036844
:102460005B6A984700F068FB00250600FF280BD048
:10247000032302000199786800F0A6F96B469B8857
:1024800065612674638201352800FEBD10B5040025
:10249000007CFF2807D000F01BFA217C024800F0E6
:1024A000D1F8FF23237410BD6801002070B50E0021
:1024B00086B0040002A8150003F01CF802AA31003F
:1024C0000848FFF756FF00280AD0074A23680492FD
:1024D000039A9B6A0192059204A92A00200098475A
:1024E00006B070BD60010020706C000070B5037C08
:1024F00004000D001600FF2B02D100F01DFB20741C
:10250000227C0020FF2A05D068680123310000F0FA
:102510009DF9012070BD10B5007C00F0CFFA10BD10
:1025200010B51400007C92B200F07EFA200010BDBD
:10253000436937B50400002B0CDD6B46DD1D017CC3
:1025400001232A00054800F0D3F863692878013B8D
:1025500063613EBD01204042FBE7C04668010020A8
:1025600013B504006369217C5A1E6261002B06D0FA
:102570006A4601230732044800F0BAF8F2E708007F
:1025800000F0DAF9606116BD68010020436910B5FA
:10259000002B04DD017C034800F09AF810BD0120F7
:1025A0004042FBE76801002007B500236A4601931B
:1025B0001380007C01A900F037FB6B466A461B784C
:1025C00050781B02C01880B20EBD13B500236A46B6
:1025D000040001931380087C01A900F025FB01A9E8
:1025E000200002F09DFF200016BD000070B5040021
:1025F0000020130062690D00824209DD217C2A005F
:10260000044800F075F8002802DD63691B1A636155
:1026100070BDC04668010020FA239B008360044B14
:10262000002208330360FF23426003744261704755
:102630009867000010B504007822002103F093FE93
:10264000200010BD10B50C244C430419206800284C
:1026500005D003F075FE002363602360A36010BD06
:1026600070B505000024210028000134FFF7EAFFBF
:102670000A2CF8D1280070BDF7B50C244C4304197E
:10268000A36805000E00002B1AD12768002F05D182
:102690000E4803F04BFEA760606020606B469F1DF4
:1026A0000A4BF0B23A0021683B8000F081F9002823
:1026B00006D023683A8863600C237343EB189A6052
:1026C0000C235E43AD19A868FEBDC046DC050000C2
:1026D00070B504000D00FFF7CFFF002805D00C21D6
:1026E000694364186368187870BD01204042FBE7B5
:1026F000F8B506000C0017001D00FFF7BDFF00280D
:1027000011D0854200DD05000C235C4334192A00FA
:102710006168380003F01EFE280063685B1963607F
:10272000A3685B1BA360F8BD10B5054C2000FFF744
:1027300081FF044A0449200003F028FD10BDC04673
:102740006801002000000020612600007FB56B4674
:10275000DD1D9C1D1B4B0600187829702270002877
:1027600001D100F0CBFB002000F0B0FB00F024FC16
:102770000321282000F0D2FD3000002100F0BCFD34
:1027800028000022012100F08BFC01222000110012
:1027900000F086FC00F064FC00F036FC002000F045
:1027A00095FB00F009FC0E220F2300216A446B44C4
:1027B000117019702820013100F09AFC00F024FCFF
:1027C0007FBDC046ED0100207FB50E0069468C1C20
:1027D00023701D4B01901878CD1C2A70002801D160
:1027E00000F08CFB002000F071FB00F0E5FB042101
:1027F000282000F093FD002201A8042100F050FCE5
:102800003000002100F078FD28000022012100F0B6
:1028100047FC01222000110000F042FC00F0F4FB14
:10282000002000F053FB00F0C7FB0E220F23002115
:102830006A446B44117019702820013100F058FC73
:1028400000F0E2FB7FBDC046ED0100207FB50E0029
:1028500069468C1C23701D4B01901878CD1C2A7082
:10286000002801D100F04AFB002000F02FFB00F00F
:10287000A3FB04212D2000F051FD002201A804211A
:1028800000F00EFC3000002100F036FD2800002290
:10289000012100F005FC01222000110000F000FCE5
:1028A00000F0B2FB002000F011FB00F085FB0E22CF
:1028B0000F2300216A446B44117019702D200131DF
:1028C00000F016FC00F0A0FB7FBDC046ED0100202B
:1028D0001FB56B46DC1D174B20701878002801D1FE
:1028E00000F00CFB002000F0F1FA00F065FB012184
:1028F0002E2000F013FD01222000110000F0D0FB7B
:1029000000F0AEFB00F0ACFB00F07EFB002000F01E
:10291000DDFA00F051FB0E220F2300216A446B44C4
:10292000117019702E20013100F0E2FB00F06CFBF9
:102930001FBDC046ED0100201FB56B46DC1D207099
:1029400000F0D4FA002398422DD0184B18780028B4
:1029500001D100F0D3FA002000F0B8FA00F02CFB0F
:1029600001212B2000F0DAFC01222000110000F0F0
:1029700097FB00F075FB00F073FB00F045FB0020B7
:1029800000F0A4FA0E2400F017FB0D2300226B4484
:102990006C441A702280012122002B2000F0A8FB39
:1029A00000F032FB2388180004B010BDED010020B8
:1029B00073B56B46DD1D0E001400287000F096FA0A
:1029C000002801D1208076BD164B1878002801D14F
:1029D00000F094FA002000F079FA00F0EDFA0221FC
:1029E000452000F09BFC00220121280000F06FFC34
:1029F00001220221200000F06AFC00F031FB00F00F
:102A000003FB002000F062FA00F0D6FA2200310049
:102A1000452000F02AFC00F0F7FA2088431E984178
:102A2000C0B2D0E7ED0100207FB56B46DC1D224B24
:102A3000207018780E001500002801D100F05EFA11
:102A4000002000F043FA00F0B7FA0221462000F01F
:102A500065FC00220121200000F039FC3000012239
:102A6000290000F034FC03262C00093434400135E1
:102A7000002C02D000F0F4FAF6E70E250F2600F045
:102A8000C3FA6E4420006D4400F020FA00F094FA7E
:102A90003200290046202C70347000F05DFB00F0FD
:102AA000B3FA33782000002B04D028780138444250
:102AB0006041C0B204B070BDED0100207FB56B462F
:102AC000DC1D1C4B20701878002801D100F016FA8C
:102AD000002000F0FBF900F06FFA0121392000F02E
:102AE0001DFC01220E250F2620000024110000F0FD
:102AF000D7FA6E4400F0B4FA6D4400F0B1FA00F079
:102B000083FA002000F0E2F900F056FA32002900C2
:102B100039202C70347000F01FFB00F075FA337808
:102B20002000A34204D02878013844426041C0B25A
:102B300004B070BDED010020134B13B518780028C8
:102B400001D100F0DBF9002000F0C0F900F034FA08
:102B500000213F2000F0E2FB00F056FA002000F0D8
:102B6000B5F900F029FA6B469C1DFF2323706B46D4
:102B7000002207331A70012122003F2000F0B8FA2A
:102B800000F042FA207816BDED01002070B586B045
:102B9000050014000E000B22002102A803F0E3FB45
:102BA00009232A0A6B441D705A702A0C2D0E9A7044
:102BB000DD700E236B441E80360C5E801323220AC8
:102BC0006B441C705A70220C240E9A70DC70154BEA
:102BD0001878002801D100F091F9002000F076F972
:102BE00000F0EAF92120012100F098FB6B46012258
:102BF000D81DFF231100037000F052FA00F030FAE4
:102C000000F02EFA00F000FA002000F05FF900F06A
:102C1000D3F902AA0321212000F0CDFA00F0F4F943
:102C200006B070BDED01002070B586B06B46DE1DAC
:102C30000C00150030700622002103A803F093FB5E
:102C40000D23220A6B441C705A70220C240E9A70B9
:102C5000DC7012236B441D802D0C5D80134B1878A3
:102C6000002801D100F04AF9002000F02FF900F00F
:102C7000A3F901213A2000F051FB0122300011009C
:102C800000F00EFA00F0ECF900F0EAF900F0BCF9FF
:102C9000002000F01BF900F08FF903AA02213A206E
:102CA00000F089FA00F0B0F906B070BDED01002027
:102CB000F7B51D001F4B070018780C001600002800
:102CC00001D100F01BF9002000F000F900F074F9C8
:102CD0000221112000F022FB21000022380000F028
:102CE000DFF930000122290000F0DAF9032606346A
:102CF00064192500354003D000F0B2F90134F8E73B
:102D000000F082F9280000F0E1F800F055F96B4678
:102D10009C1D220007330121112025701D7000F039
:102D2000E7F9002801D1FF23237000F06DF900209E
:102D30002056FEBDED010020134B13B51878002876
:102D400001D100F0DBF8002000F0C0F800F034F909
:102D50000021202000F0E2FA00F056F9002000F0F7
:102D6000B5F800F029F96B469C1DFF2323706B46D4
:102D7000002207331A7001212200202000F0B8F948
:102D800000F042F9207816BDED01002070B5050075
:102D9000054C064A20000649FFF7F8FE28002100EE
:102DA00002F0CAFB70BDC046E8010020E00100202F
:102DB000E4010020204B73B504001878002801D1ED
:102DC00000F09CF8002000F081F800F0F5F80121F7
:102DD000342000F0A3FA200003F092FB0122C1B2DC
:102DE000200000F05DF9200003F08AFB0326441D5B
:102DF0002500354003D000F033F90134F8E700F046
:102E000003F9280000F062F800F0D6F86B469E1D2A
:102E10009D7132000733012134201D7000F068F9E4
:102E2000C4B200F0F1F8002C04D03478013C6042C8
:102E30004441E4B2200076BDED010020FF2130B511
:102E400087B00B00050000910A0004A802F05AFBAD
:102E5000174B1878002801D100F050F8002000F03E
:102E600035F800F0A9F80021352000F057FA00F0FD
:102E7000CBF8002000F02AF800F09EF80B23002287
:102E80006B441A70012103AA352000F031F9041EA9
:102E900008D003A9280002F04FFB059B6C68E41AD8
:102EA000631E9C4100F0B0F8200007B030BDC04662
:102EB000ED01002010B50C00FFF77CFF030000209F
:102EC000834202D02000FFF7B9FF10BD10B5040007
:102ED00002F09AFD044B187803F092F8002802D013
:102EE000002CF7D0F4E710BD2B00002010B51E20F9
:102EF00003F086F8431E984110BD0000F8B5274B3B
:102F00001B78002B01D0002847D01C23244E254FCE
:102F10003370254C07333B70BD33237000F08AFBC0
:102F2000224DDF2804D801232B702378DB43237044
:102F30003078012102F0ECFF3878002102F0E8FF40
:102F40002078012102F0E4FF01211E2002F0E0FFC1
:102F500001211E2003F028F83078012103F024F825
:102F60002978207803F020F80A2002F083FD2978E0
:102F700001252078694003F017F80D4802F07AFD2A
:102F800000211E2003F010F800211E2002F0C0FFD7
:102F9000084800F0BFFA014B1D70F8BDED0100209C
:102FA0002D0000202B0000202C000020EC01002030
:102FB000EE0200001002002013B500246B466A46A2
:102FC0001C7101235371019A0B490C4800F0CAFA95
:102FD0000B4B2100187802F0E7FF02F015FD04000A
:102FE000084B187803F00CF8012804D002F00CFD0F
:102FF000001B0428F4D913BD00127A00100200202F
:103000002D0000202B00002010B5044B0121187862
:1030100002F0CAFF024800F025FA10BD2D00002082
:103020001002002007B56B46D871D9790248C9B2A1
:1030300000F0A0F90EBDC0461002002010B504003B
:10304000FF20FFF7EFFF207010BD70B50C000500EA
:103050000800FFF7F3FF2078401B4342584170BD42
:1030600013B56B46DC1D002320002370FFF7E6FF3D
:10307000207816BD70B50500084CFFF7F1FFEF286A
:1030800008D0013C002C01D0A842F6D1401B43429D
:10309000584170BD01204042FBE7C046E9030000F3
:1030A000F8B5050008000E0017002C00FFF7BAFF66
:1030B000631B9E4204DD2078FFF7B4FF0134F7E77D
:1030C000012F02D1EE20FFF7ADFFF8BD10B50400CF
:1030D000000AFFF7A7FFE0B2FFF7A4FF10BD10B58D
:1030E0000400FF20FFF79EFF002C00D0207010BDD1
:1030F000F0B585B01F0002ABDC1D00230500E02009
:10310000019116002370FFF7B5FF002802D10020BF
:1031100005B0F0BD2000FFF791FF80222378154312
:10312000AB42F4D12000FFF789FF2378019A934244
:10313000EDD13800FFF7D3FF35003A78AB1B9A4248
:1031400004DD2800FFF77AFF0135F6E72100EE20C5
:10315000FFF77BFF0120DBE7F7B56B46DC1D0023A3
:103160000500E0200E0017002370FFF783FF002802
:1031700001D10020FEBD2000FFF760FF80222378F0
:103180001543AB42F5D1FFF76BFF00280DD0380097
:10319000FFF7A5FF35003A78AB1B9A4205DDFF200B
:1031A000FFF740FF28700135F5E72100EE20FFF71B
:1031B0004CFF0120DEE7F0B587B004ABDE1D002335
:1031C0000500E020039114003370FFF753FF00283F
:1031D00002D1002007B0F0BD3000FFF72FFF8022A2
:1031E00033781543AB42F4D1FFF73AFF0190002842
:1031F000EFD005234343E3180293029B9C421AD06D
:10320000FF20FFF70FFF002720702378BB4210DD5F
:10321000A37865781B022B43E578FF202D042B4310
:1032200025792D061D43FFF7FDFEED1928700137A6
:10323000EBE70534E1E7019B039A9342C9D13100E2
:10324000EE20FFF702FF0120C4E770B50500FF2064
:10325000FFF7E8FE0400FF20FFF7E4FE240220430E
:1032600080B2002D00D0288070BDF0B5002485B05C
:1032700002AB0700DD1DE020019116002C70FFF766
:10328000F9FEA04202D1002005B0F0BD2800FFF7F2
:10329000D5FE80222B781743BB42F4D1FFF7E0FE26
:1032A00000280ED03000FFF7D0FF3388A34208D9A2
:1032B000019BFF201F19FFF7B5FE01343870A4B23F
:1032C000F3E72900EE20FFF7C0FE0120DCE770B530
:1032D00004000D0008001600FFF7F8FE6519AC4267
:1032E00004D02078FFF79EFE0134F8E7012E02D1CA
:1032F000EE20FFF797FE70BD70B5040002200D00B0
:10330000FFF790FE200AFFF78DFEE0B2FFF78AFE7E
:10331000012D02D1EE20FFF785FE70BD70B50400CF
:10332000E0200D00FFF77EFE7F202040FFF77AFEB1
:103330002800FFF777FE002D02D1EE20FFF772FE86
:1033400070BD70B506000C008D18AC4207D0336814
:1033500021789B683000984720700134F5E770BDF4
:103360007047704710B50400406800F0E9FA002388
:10337000237610BD10B5406800F007FB10BDF8B50E
:10338000050040680C0000F0FBFA2B68E7B2260A43
:103390009B68012810D139002800FF2798472B6827
:1033A000BC4304439B683100280098470302200077
:1033B0003840184380B2F8BD310028009847FF26F6
:1033C0002B680002344004439B683900280098476A
:1033D000B4432043EEE710B5040002F0C3FB200025
:1033E00010BD000010B54B1C0BD0102909D0EFF315
:1033F000108472B6102905DD02234376002C00D11B
:1034000062B610BD0123427E1A43427618224A4317
:103410000449891816228A569340C2691343C3612E
:10342000ECE7C046286800004B1C17D0102915D0C7
:10343000437E9B0712D4EFF3108272B618234B43DE
:103440000749C9180123897D49B28B40C169994355
:10345000C16100D14176002A00D162B67047C046F2
:1034600028680000437E002B05D09A0704D5837E90
:10347000002B00D062B67047DB07FCD5C369024A57
:103480009BB2D360F7E7C04600180040037E002BD4
:1034900004D143768376C36101330376704700001D
:1034A0007FB5036902AE04000D00029172608B4289
:1034B00003D1828AB3889A4226D0200006223100A6
:1034C000103002F047FF606800F051FA7379E17A3A
:1034D000013B581E8341227B00936068002300F06B
:1034E00087FB33790021013BDBB2022B01D8074A6D
:1034F000D15C074B2A009D4200D91A00606800F099
:1035000007FA606800F029FA7FBDC046E86700004E
:10351000001BB70070B518260400FFF7B7FF330093
:103520000821207A0D4D4343EB18595602F080FDD7
:1035300033000821A07A4343EB18595602F078FD76
:103540000821607A4643AD19695602F071FD044BBB
:10355000200006CBFFF7A4FF70BDC046286800001E
:103560003002002007B5437E00910192002B07D066
:103570009A070AD5EFF310835A425341837672B605
:103580000099019AFFF78CFF07BDDB07F8D5C369E7
:10359000014A9BB29360F3E700180040F7B500249E
:1035A0000125194B194A5D711A601C71184B194895
:1035B000083301930360184B184F4360184B194EA2
:1035C000038109233A003100457504610475837253
:1035D000063B0476C472037302F0D8FD1248134B05
:1035E000019A4360124B457503811D23310002602F
:1035F00004613A00047583721A3B05730476C37242
:1036000002F0C4FDF7BDC0463002002000093D00B5
:10361000EC670000F0010020C80600200000002038
:103620000A0800006333000010020020E0060020BA
:103630001B1A00002420704770B50121202002F0E1
:1036400067FC0021202002F0AFFC0A2002F012FAF1
:103650000021202002F05CFC642002F00BFA202004
:1036600002F0E8FB962305009B002F4C984222DDD8
:103670002E49200000F0E2FA200000F0A0F903211A
:103680000B2002F0D5FC03210C2002F0D1FC00221B
:103690006B21200000F0C8F90121200000F006FA9B
:1036A0001B21200000F002FA2000032100F0A6F9FF
:1036B000200000F099F91D49200000F0BFFA200019
:1036C00000F07DF903210B2002F0B2FC03210C2055
:1036D00002F0AEFC00226B21200000F0A5F90721CA
:1036E000200000F0E3F996232B219B009D4200DD92
:1036F0002039200000F0DAF90321200000F07EF9E3
:10370000200000F071F901211E2002F001FC0121CE
:103710001E2002F049FC01211F2002F0F9FB0121CB
:103720001F2002F041FC70BDD0060020A0860100E1
:1037300010B5024801F001FE10BDC046380200205D
:1037400010B5024801F0F9FD10BDC0467C04002010
:103750007FB51949194800F04BF81949194800F08C
:1037600047F81949194800F043F81949194800F079
:103770003FF8194C1949200000F03AF8184E194941
:10378000300000F035F80125032331000195009346
:103790000D220B33144801F049FD1D230393013B17
:1037A00002931A3B0193009518331B2221000F4806
:1037B00001F0F8FC7FBDC04600080042C0060020B2
:1037C000000C0042C806002000100042D006002075
:1037D00000140042D8060020E00600200018004235
:1037E000E8060020001C0042380200207C04002073
:1037F00000230371016070479446F0B59E1E721E4F
:1038000096416246056892072F6836063A4332436E
:103810002A60072505AC24780068A40129402143CB
:1038200042680024022B00D05C0311432143416015
:10383000F0BD30B5C0250368AD031C6812052A40F1
:103840002243C0240904A4022140114319600368E3
:103850005A6814435C6030BD0123026811680B4351
:10386000136003681A68D207FCD4DA69D207F9D466
:1038700070470223026811680B4313600268D36922
:103880009B07FCD470470268137E9B0702D4037920
:10389000002BF9D1002303717047002203685A837B
:1038A00070470368187E4007C00F70470368187E92
:1038B000C0097047802302685B42117E0B43137678
:1038C00070470368588B8007C00F70470223026857
:1038D000518B0B43538370470368187EC007C00F9A
:1038E00070470368188DC0B2704703681A7ED2070C
:1038F000FCD589B219850123037118007047012294
:1039000003689A757047012203681A7570470000B2
:1039100070B5012604684B0833403140256809071B
:103920005B070B432B43236004685100034802F0FC
:103930003FFC0138C0B2207370BDC046006CDC0291
:103940000123026811680B43136003681A68D207E9
:10395000FCD4DA69D207F9D47047022302681168EF
:103960000B4313600268D3699B07FCD4704703685C
:10397000DA699207FCD402211A688A431A607047F8
:10398000036818684000C00F70470268936A5B0ABA
:103990005B021943916203681A7E5207FCD5986A4C
:1039A000C0B270470123026811680B4313600368BB
:1039B0001A68D207FCD4DA69D207F9D47047022317
:1039C000026811680B4313600368DA699207FCD43C
:1039D00030215A8B8A43110010220A435A8302680D
:1039E000D3695B07FCD470470221026813688B43DC
:1039F00013600268D3699B07FCD47047032230B57B
:103A0000036811401C68074D5A6809042A40E406FF
:103A10001143640F5960052C03D10268D3695B0719
:103A2000FCD430BDFFFFFCFF70B5056804006B8B54
:103A30009B069B0F022B0DD06B8B00209B069B0FD0
:103A4000032B32D06B8B9B0704D56B8B9B069B0F94
:103A5000012B2AD16B6A49001143DB0AC9B2DB0290
:103A60000B436B622368002A13D11A7ED207FCD560
:103A70005B8B9B069B0F022B04D049080022200081
:103A8000FFF7D2FF2368588B4007C30F012058402F
:103A90000BE0187E8007C00FF4D11A7ED207F8D54C
:103AA000C022596892020A435A6070BD03682833E5
:103AB00019700268107EC007C30F508B002B06D10F
:103AC000C007C00F08D1538B9B07F3D57047400741
:103AD000C30F01205840F9E71800F7E70368214AAF
:103AE00030B593422FD0204A93422FD01F4A9342A1
:103AF0002FD01F4A93422FD01E4A93422FD01E4AE6
:103B000093421FD10E2319220121032599401B48FE
:103B1000C024016099082B40AB40FC359D408900D2
:103B20000918A4000859A843C0259D402B00034351
:103B30000B518023DB011A43114B5A805A7852B241
:103B4000002AFBDB30BD09231422DDE70A231522FE
:103B5000DAE70B231622D7E70C231722D4E70D232D
:103B60001822D1E700080042000C00420010004279
:103B70000014004200180042001C004200E100E076
:103B8000000C0040F8B504000F0016001D00FFF700
:103B9000A5FF2000FFF760FE1C21BB000B40710752
:103BA0002268090C0B431360842322689375012F4C
:103BB0001AD11021012E00D008390C4B6943186826
:103BC000C00002F0F5FA0722216802408B895203F7
:103BD000DB04DB0C13438B81226803049089DB0C2C
:103BE000400B400318439081F8BDC04640000020C0
:103BF000F7B50600019308AB1F780D001400FFF71E
:103C00009FFE3000FFF76AFFC02224059203144094
:103C1000BA070C2717433C43C0270722BF022D04D5
:103C200033683D4025431D60019B316813401A00F5
:103C300080239B0213434B60F7BD0000F8B50400DE
:103C40000F00FFF74BFF2000FFF7ACFE14222368A4
:103C500079001A600C4B25681E68300002F0A8FA43
:103C60000A490400300002F0A3FA7D23FA215843E8
:103C7000C90002F09DFAFF23241AE868053C1C40A5
:103C800098430443EC60F8BD4000002040420F0020
:103C90000020704770B50F26CB1D0139020032405D
:103CA000D5B22C0000093034092A00DD07341C701D
:103CB000013B8B42F2D170BD10B50C000B4B186864
:103CC000FFF7E8FF21000A4B08311868FFF7E2FF11
:103CD0002100084B10311868FFF7DCFF2100064B6C
:103CE00018311868FFF7D6FF202010BD0CA0800007
:103CF00040A0800044A0800048A0800008B4024B8F
:103D00009C46103808BC6047B93C00003F20704713
:103D100013B56B460268D971073354681900012244
:103D2000A04716BD70B50A260B7892B06E440233D8
:103D300005000B703C220021300002F014FB3948D2
:103D400001AC069038482421079006202077684669
:103D5000364AA1742281364A364BA281FD3AFF3A97
:103D60008018C177684623390630C1776846073026
:103D7000C17702A8C1770720F2770326083169448A
:103D8000C87703A9CE7710212B366E4431700926EF
:103D900021851F3169440E700CA9053E0E70332138
:103DA0002380022369440B7006360DA90E70224948
:103DB0003536A1863B216E44307010A86274E277DC
:103DC00002703D3269446A440B7013704021002236
:103DD000E37023716371A37341336B4421871970BE
:103DE0005A702B7DC039A370A37263770133DBB2A5
:103DF000A3776A7D0B200D0068441543C5773120F9
:103E0000684403703A23501C6B44187041230232FB
:103E10000A436B441A7021004222084800F0A4FDB6
:103E200012B070BD1001042402060524090400002C
:103E300001020000080B0000070500004C070020ED
:103E400008B4024B9C46103808BC6047253D000072
:103E500070B5027D0B790C0000259A420BD10B78CE
:103E60004E78A12B09D1212E05D107221B491C48D0
:103E700000F07AFD0135280070BD212BFBD1202EEA
:103E800022D107221549164800F0B0FC9622134BA8
:103E9000D200196891421DD1DB79DB071AD4FA20D0
:103EA00002F026F900210E4800F066FE0125232EBF
:103EB000E1D1E378A2781B0213430A4A00210848A3
:103EC000136000F059FED6E7222EEFD18A78034B1B
:103ED000DA71DBE702F016F9E4E7C04634000020AF
:103EE0004C0700203000002008B4024B9C461038DC
:103EF00008BC6047513E000010B5417D006A0131A9
:103F000000F0ACFB034B1B6801335A1E9341181899
:103F100010BDC0463C00002010B5417D006A023152
:103F200000F0B2FB10BD10B5417D006A023100F017
:103F300079FB10BD70B50D00417D04001300023106
:103F40002A00006A00F066FC002801D101236360AA
:103F500070BD000010B5054C23685A1C04D10368DD
:103F60005B69984703002060180010BD3C000020EA
:103F7000074A0300106810B5411C03D001235B42BF
:103F8000136010BD597D186A013100F0F3FBF8E7AA
:103F90003C0000200020704770477047FA239B00C8
:103FA00010B583600F4B0022C38203002833836166
:103FB0000D4B04004260C261180040332361083099
:103FC000631D21622060DA778323A362813BE36271
:103FD0008033236301F036FB2100103101F003FB35
:103FE000200010BD03020000886B0000022110B504
:103FF000094B1A68437D5B01D318FF339C7A214338
:104000009972437D0133DBB25B01D3180122FF3388
:10401000997A0A439A7210BD040C00207047000080
:1040200010B501F0F1FCF423FF330024984207D9C6
:10403000044B0A20DC79631E9C41E4B201F01AFDB6
:10404000200010BD3400002010B502490248FFF7DF
:10405000A5FF10BD4C070020F0060020704710B5EA
:10406000040001F07FFD200010BD0000F0B58229A2
:1040700019D1C3B2294D5A01AA189169284C80015F
:104080000C40C0218905214391612649083340181D
:104090007021506128685B011A5C8A43110030224C
:1040A0000A431A54F0BD0029FCD1C026C1B21B4CF2
:1040B0004B01E3189A681A4DB6052A4032439A60BC
:1040C000194A800182185A600A00072724680832BA
:1040D0005201115DB9430F000121394311559F6908
:1040E00010493D4040182E439E6158617020115D7B
:1040F0008143080010210143115599680B48A2180B
:10410000084080214903014399609968890B89031C
:104110009960402311790B431371C3E7040C00200D
:10412000FFFFFF8F7807002038090020FF3F00F0D5
:10413000EFF3108303600123436072B67047036896
:10414000002B02D162B6BFF36F8F704773B5836DDA
:104150000400002B1BD10600A83635786846FFF70F
:10416000E7FF019BEDB2013B02D33578EDB2FAE7F0
:1041700068460193FFF7E3FF002D01D1002076BDD3
:104180002300A4331868A0342368C01AF7E76846F0
:10419000FFF7CEFF22000025019BF432013B02D342
:1041A0001578EDB2FAE768460193FFF7C8FF002DD6
:1041B000E4D02300F0331868EC34E5E710B5436D24
:1041C0004468DBB25A01A2189168094808330840D4
:1041D000802149030143916091685B01890B890348
:1041E00091602268D318402219790A431A7110BDD0
:1041F000FF3F00F0F7B5436D4268DBB219000400E1
:104200000831106849014118C979C90711D55B0106
:10421000D21893689B049B0C0CD12000FFF7CEFFB3
:1042200063681A68636DDBB208335B01D3187F22C1
:10423000DA71F7BDE16D002923D12100A4310B60B3
:1042400023000125AC33E56568465360FFF770FF36
:10425000260020002100019BA836013BF430F531F7
:104260005A1C33D0357002785F1ED2B20A700A78B9
:10427000002A04D120000193FFF7A0FFE8E73B00EC
:10428000EEE72100F0310B600023E365230060338B
:1042900053606846FFF74CFF0125260020002100EF
:1042A000019BF436013BA830F5315A1C0ED0357015
:1042B00002785F1ED2B20A700A78002A04D1200068
:1042C0000193FFF77BFFE8E73B00EEE768460193C9
:1042D000FFF735FFA4E737B56B46DC1D00230D0063
:1042E000237001F0AFF9210001F03AF92B6818189A
:1042F000286020783EBD00002023F7B5474A05001E
:10430000D1690F200B43D361012245490B78134338
:104310000B70444B19788143197006211C78214396
:10432000197041490C7822430A701A7802401A70B9
:10433000602219780A431A703C4B3D4A5A805F78D4
:10434000FF09FCD13B4801F059FB01233A4C3B4E9D
:104350002268300011780B4313708022390052001C
:1043600002F001F822689378DB07FCD456621F261E
:10437000334B1B68590B980C9B01314030405B0F4D
:10438000B14200D105211F2800D10238072B00D1EE
:10439000043B31408901178D01912A4930400F407B
:1043A000019939431185118D0700B1430800384345
:1043B0001085118D1803244B7F260B4003430C20DE
:1043C00013850823D17881430B430321D3702268DE
:1043D000D3788B4301390B43D37022681378334071
:1043E0001370042322681678334313702268C124A3
:1043F0001389A40083431548138103591B021B0A28
:10440000035180230360137811481943012311706D
:104410002B700021FFF702FEF7BDC04600040040EC
:10442000584400413C44004159440041000C0040C4
:1044300006400000894D0000040C0020080C0020FC
:10444000246080003FF8FFFFFF8FFFFF00E100E0E6
:10445000F00600200078002810D00121084B1B68CE
:104460001A898A431A810822198B0A431A83042263
:10447000198B0A431A830022024B1A607047C04608
:10448000040C0020FC0B002010B50F4A93699B0B15
:104490009B03936113680222FF331A729879823A60
:1044A00002439A711A7A9207FCD57F24074A214069
:1044B000937A0800A3431900802301439172917AF3
:1044C0005B420B43937210BD040C0020005000416E
:1044D00010B50C0001F0B6F8210001F074F80028C6
:1044E00004D1034A93699B0B9B03936110BDC046A3
:1044F000040C0020F8B50D00832A19D1CBB23B4C37
:104500005A01A21891693A48AD010840C0218905B5
:1045100001439161374920686D1870210833556156
:104520005B011A5C8A43110040220A431A54F8BD09
:10453000022A55D1304A8B009858002802D00368CF
:104540005B699847F82001F009FB0400274E2B4BCC
:104550004660036040220021083001F004FF220081
:104560000023A032A3646565E3642365A365E36566
:104570005360D3641372136013654C321372537219
:10458000FF222B001340590171188868184F083317
:104590000740C020800538438860306807265B01EB
:1045A000195CAD00B1430E000321314319542300BF
:1045B000616D606811404901411860334B60616D65
:1045C00063680A401B6852019B180122FF33997AE5
:1045D00020000A439A72FFF7F1FD074B5C51A6E7F2
:1045E00011002800FFF742FDA1E7C046040C00209F
:1045F000FFFFFF8F7807002050070020E06B0000CE
:1046000070B505000124064BA200D258002A06D03E
:10461000210028000134FFF76DFF0A2CF3D170BD93
:10462000240700200B4BCAB20B488901C91853015B
:10463000C318596199690832890B89039961036824
:1046400052019A180223D3715179823B0B43537163
:104650007047C04678070020040C0020084B8A00F1
:10466000D05810B5002803D003689B68984710BD48
:10467000C9B2044B4901591888688004800CF6E7D8
:1046800050070020040C002010B50C00FFF7E6FFD7
:1046900000280CD0064BE4B21B68083464011C19D6
:1046A000802362795B42134363710223E37110BD7F
:1046B000040C0020F0B51C002A4B85B01B680700D5
:1046C0000D000292002B4AD0274B8A00D0580028B8
:1046D00008D0036822005B68029998470400200014
:1046E00005B0F0BD3800FFF7B9FF844204D92900B6
:1046F0003800FFF7B3FF04000121EBB21B4E039318
:104700005B010193F21893689B0B9B039360019AE2
:10471000336802989B18FF335A7A0A435A72144B33
:10472000A901C918220001F015FE002CD7D02900DC
:104730003800FFF793FF0028D1D14021039B326856
:1047400008335B01D3181879014319710121D9711C
:10475000019BD318FF339A7A0A439A72BFE7012468
:104760006442BCE7FC0B002050070020040C002032
:104770003809002013B56B46DC1D22000123FFF72A
:1047800099FF012801D1207816BD01204042FBE7A6
:1047900070B5CBB2124A13485C018901891802191D
:1047A00051609168104D08330D4080214903294321
:1047B000402591609168890B8903916001685A01D5
:1047C0008A1816793543157195796D06FCD55B010C
:1047D000C918CB79DB07FCD500198068C0B270BD61
:1047E00038090020040C0020FF3F00F070B50D00D8
:1047F00000211400FFF7CCFFA04200D920000023C5
:104800000349A34203D0CA5CEA540133F9E770BDFF
:1048100038090020F0B51E003A4B85B01B680F0028
:104820000192002B35D08023DB019E4231D8002538
:10483000354B8A01D3180293002E2CD0334B1B68C2
:104840000393FF233B401C0000930834039B640147
:104850001C19A379DB0921D02D4B2E49186801F0D2
:10486000A7FC2D4B1721584301F0A2FC2B4BE279FA
:10487000920713D4DA5D002A01D10138F7D2012260
:10488000DA55009B5A01214B9B189A69920B9203AF
:104890009A6101256D42280005B0F0BD00221F4B32
:1048A0003400DA553F2E09D9009B40245A01174B9A
:1048B0009B188022996912060A439A612200019985
:1048C000029801F047FD009BA1045A010F4B890C8F
:1048D0009B18029A2D195A619A69361B920B920302
:1048E0000A439A61009B039A08335B01D3180222A2
:1048F000DA715979823A0A435A71019B1B19019363
:104900009AE7C046FC0B002078070020040C00202A
:104910004000002040420F00701101006D07002090
:1049200070B50D001C000D4BAE01F61811003000E3
:10493000220001F00FFDEDB209496D014D196E61C4
:10494000AB69084A20001340AB61AB69A2049B0B22
:10495000920C9B031343AB6170BDC04678070020E7
:10496000040C0020FF3F00F0F7B5104B01901B78BE
:104970000F001500002B0CD10D4B16001C78002CDD
:1049800009D00C4E0C4834882018641901F0E2FC60
:1049900034802800FEBD002EFBD03A1933000021E0
:1049A0000198FFF7BDFF2418361AF4E7F80A002033
:1049B000F90B0020FA0B0020F90A0020F8B50F00CF
:1049C00016000024012A26D9100001F0AFFC0500D2
:1049D000380001F095FD03230222013040002870C9
:1049E0006B7096420DD9397800290AD0531CDBB27E
:1049F0000137A9549E4203D00232EC54D2B2F0E700
:104A0000320029000548FFF7AFFF441EA041C4B2A1
:104A1000280001F095FC2000F8BDC0464C0700209E
:104A2000F0B50024012685B0184B0F0069461E70B2
:104A300005000094FFF74FFC154B01A90B806A3B62
:104A4000FF3BCB715A330B72009B8C7109334B8047
:104A50000E4B4E7108711C703A00092F0FD00D4F8C
:104A600009223E700C4E280000943480FFF77CFF32
:104A700069462800FFF72FFC328808493C7028005F
:104A8000FFF772FF012005B0F0BDC046F80A002014
:104A900009020000F90B0020FA0B0020F90A00209F
:104AA00070B5CE7892B005000C00022E0BD18B7938
:104AB000C9792C4809021943FFF7B2FF411E88410A
:104AC000C0B212B070BD00F0BDFD210000F05CFD71
:104AD000002803D0C117081AC00FF2E7012E0ED12B
:104AE000E279A37912021A431F49112A13D8D2B2CC
:104AF000002A10D02800FFF737FF0120E1E7032E3E
:104B0000DFD1A378002B08D1E279A37912021A43EE
:104B10001649032AEBD90A78ECE7022B08D1E2798F
:104B2000A379120212491A432800FFF747FFC8E78A
:104B3000012B05D1E279A37912021A430D49F3E75B
:104B4000032BBED14122010001A801F00CFC00F0B2
:104B500079FD01A900F028FDE279A37912021A4338
:104B600001A9E1E74C070020226C0000126C000054
:104B7000FC6B0000166C0000CBB204495B01C91845
:104B80008B699B0B9B038B617047C046040C002014
:104B900037B5050048780C000B2810D801F0FEFA54
:104BA000061B0F2B0F404561494C5A5D097801AA3D
:104BB000002906D1022311802800FFF7B1FE012051
:104BC0003EBD00231380284B1B78012B00D11370AE
:104BD00002230021F0E78A780023012A03D101AAE9
:104BE0001380224BF0E7204A1370214A93699B0BF4
:104BF0009B039361E3E78C78012C06D100211B4BCA
:104C000001AA1C7011702300D6E70120002CD7D117
:104C1000154B174A187093699B0B9B039361CFE761
:104C200089782800FFF730FCC9E72800FFF738FF34
:104C3000C6E701230F4ACCE70B780020DB06BFD183
:104C40002800FFF7DDFCA2780A4B0B481A60FFF73B
:104C5000CDF9CAE70123094ABBE78A78074B1A60F6
:104C6000C3E70020ACE7C0466C07002074070020B3
:104C7000040C0020FC0B0020F0060020000C00209B
:104C80003A4BF7B51E780500002E5FD1384C2368EB
:104C90009A8B12070DD5082231009A833000FFF756
:104CA000E5F910222368FF33997A0A439A72314B4F
:104CB0001E6023689A8B520701D504229A83FF3322
:104CC0001A7A920603D52022597A0A435A721A7A1E
:104CD000D20623D569460800274AC0CAC0C0A268C8
:104CE000920B9203A2604022587902435A716023CA
:104CF0000A7828001A422AD1FFF74AFF2368FF33B7
:104D0000002827D08022997952420A439A711A7A50
:104D1000520603D54022597A0A435A727F2601254A
:104D20002368FF331E722F00236808377F01DB19C9
:104D3000DB79002B07D0114BAA00D05800280DD0EA
:104D400003681B6898470135082DECD1F7BDFFF7C4
:104D5000BFFBD3E720210A4A9171D8E7290009480F
:104D6000FFF71BF92368DF19FE71ECE7F90B002050
:104D7000040C0020FC0B0020380900205007002004
:104D8000FF500041F006002010B50248FFF778FF01
:104D900010BDC0464C07002080235B000380002329
:104DA000436007330372704783000148C01870479F
:104DB00024070020836C402B09D03F22036CC15490
:104DC000036C013313400364836C013383647047C5
:104DD000F7B505006846FFF7ABF900264022019BB6
:104DE000013B02D32E6D961BFAE768460193FFF74D
:104DF000A6F9AB6D6846002B4FD1FFF799F9290052
:104E0000019BA831013B5A1C0CD00C785A1EE4B20D
:104E1000002C05D168460193FFF791F92000FEBDF3
:104E20001300F0E7684601930024FFF788F92A0091
:104E30002900A0321368A431B4420ED00868984209
:104E40000BD92800591CEB18116060331978083011
:104E5000C9B2FFF7AFFF0134E9E709689942DDD134
:104E6000002313600133AB656846FFF761F92F003B
:104E70002A000021019BA837013BF532581CC9D0FC
:104E8000397010785E1E002805D01170280001933B
:104E9000FFF794F9EBE73300F0E7FFF749F9290052
:104EA000019BF431013B5A1C06D00C785A1EE4B227
:104EB000002CAFD01300F6E7684601930024FFF7FB
:104EC0003EF92A002900EC321368F031B44202D0D6
:104ED000086898421DD8096899429FD10023684606
:104EE0001360AB65FFF724F92F002A000021019B16
:104EF000F437013BF532581C00D18BE7397010783C
:104F00005E1E002811D0117028000193FFF756F99A
:104F1000EAE72800591CEB181160AC331978083007
:104F2000C9B2FFF747FF0134CBE73300E3E710B521
:104F30000400FFF74DFF206D10BD10B50400FFF712
:104F400047FF236D002B03D0E36CE418207A10BDDB
:104F500001204042FBE7F7B517000E000400FFF701
:104F600037FF6846FFF7E4F83F2200259446019B8F
:104F7000013B5A1C19D0BD4215D2226D002A12D015
:104F80000121226D4942002A0AD06046E26CA21833
:104F9000117AE26C01320240E264226D013A22652C
:104FA00071550135E7E7013BE3E768460193FFF7F9
:104FB000C6F82800FEBD0000014B024A1A60704787
:104FC000040C0020005000410120704710B5036818
:104FD000014A1B6A984710BD13040000FC30006AA8
:104FE000704787239B00C018C36880204000C01A08
:104FF00070470300FC331A6A002A03D0DB69C0182B
:10500000007D704701204042FBE710B504000069B5
:10501000FEF722FC22000023FC329361D36113626D
:1050200087229200A4186360A360E36010BD872309
:1050300010B59B00C218D368002BFCD10069FEF7A5
:1050400022FC10BDF02001403039484248417047F1
:10505000F0231B011940802306209B0099420AD0AF
:105060000133FF330130994205D0802302385B00C1
:10507000994200D0002070470F20014000200129F4
:1050800003D00239481E8141481C70478B23F0B57C
:10509000182685B002919B000400C05C33000821F3
:1050A0004343324D1700EB18595600F0C1FF304B07
:1050B0000821E05C33004343EB18595600F0B8FF79
:1050C0002C4BE25C0393022A09D11133E05CFF28E8
:1050D00005D008214643AE19715600F0A9FF8C2671
:1050E000B600A05DFF2819D0012100F011FF1822A1
:1050F000A35D21495A43AB56AD18DB0158188D21E9
:10510000890060501D4901225B188E21890063507F
:1051100069688A408F21890062501A600122029BCF
:1051200011002069FEF72EFD39002000FFF790FFE7
:10513000390005002000FFF79FFF3900060020001E
:10514000FFF780FF33000090290020690122FEF75D
:1051500053FB0B4B2069E25C039BE15CFEF769FBB0
:105160002069FEF786FB05B0F0BDC0462868000048
:105170002D0200002F020000184400411444004199
:105180002E020000802210B504005200002101F020
:10519000EAF823000022FC335A6020009A60DA60AB
:1051A00010BD0000F0B585B01D000AAB1B780400EF
:1051B00000930BAB1B78160001930CAB1B780F0010
:1051C00002930DAB1B78039300234360FA239B00EB
:1051D0008360124B083303601430FFF7D3FF2000C5
:1051E0002130FF30FFF7CEFF8B236A469B002761FB
:1051F000E6540B4B1278E5540A4B2000E2546A4601
:10520000094B1279E2546A46127A0133E2546A4633
:10521000127B1033E25405B0F0BDC046346C000080
:105220002D0200002E0200002F020000F7B51D0025
:1052300008AB1B780400009309AB1B7816000193A0
:1052400000234360FA239B008360114B0F00083357
:1052500003601430FFF796FF20002130FF30FFF786
:1052600091FF8B236A469B002761E654094B127815
:10527000E554094B2000E2546A46084B1279E25487
:105280008C22313BFF3B9200A3541032A354FEBD4D
:10529000346C00002D0200002E0200002F020000DE
:1052A000F7B5EFF3108300930123019372B68026C4
:1052B0000200FF25019BFC327600013B5C1C0FD0F5
:1052C000D4685F1EB44209D0546801555468013453
:1052D0002C405460D4680134D460EEE73B00EDE725
:1052E00068460193FEF72BFFF7BD13B5EFF310836C
:1052F00000930123019372B6019B5A1E0192002B69
:1053000015D00300FC33DA68002A0DD09A68845C5B
:105310009A680132D2B29A60DA68013ADA60684675
:10532000FEF70DFF200016BD01246442F7E70124BB
:105330006846FEF704FF6442F4E710B50400006914
:10534000FEF7BFFA002805D02069FEF7CAFA2069E7
:10535000FEF7BCFA2069FEF7A4FA00281BD02069EA
:10536000FEF7BFFA010020001430FFF799FF8C23ED
:105370009B00E35CFF2B0ED02300FC331A6A8023D2
:105380005B009B1A092B06DC8D238F229B00920069
:10539000E358A2581A602069FEF79EFA00280ED042
:1053A00087239B00E318DB68002B14D020002130FA
:1053B000FF30FFF79AFFC1B22069FEF796FA206925
:1053C000FEF774FA002805D02069FEF773FA206909
:1053D000FEF763FA10BD2069FEF795FAEFE70000CB
:1053E000F8B5040000690D00FEF776FA87239B00EC
:1053F000E618002802D0F368002B34D00127802261
:10540000F3685200934223D1EFF310833B4210D153
:10541000174B5B68DB05DB0DF1D0103B5BB2002B5B
:1054200010DAF13A1340083B9B08124A9B009B1884
:105430001B682069FEF750FA0028E0D02000FFF733
:105440007CFFDCE79B08C0330B4A9B009B58F0E7CE
:1054500020002130FF302900FFF722FF2069FEF7EE
:105460004EFA0120F8BD29002069FEF73EFAF8E760
:1054700000ED00E01CED00E000E100E010B50400EC
:105480001430FFF732FF8C239B00E35CFF2B0ED020
:105490002300FC331A6A80235B009B1A0A2B06DD6B
:1054A0008E238F229B009200E358A2581A6010BDF1
:1054B000F7B5C31D0193002306000D00041D0093E2
:1054C00021780A22280000F086F92E210700280002
:1054D00000F0FEF8009B3F18DB190093019B01349C
:1054E0009C42EDD1F17928000A2200F074F9009B6A
:1054F0001818FEBD024B0833036000234360704759
:10550000686C000030B503AC2578044CC5710834D4
:10551000046001714271837130BDC046686C000047
:1055200010B50400034B0422083308C000F012FF3A
:10553000200010BD686C000010B504000422043087
:1055400000F008FF200010BD034B044A083313602D
:10555000002353607047C046686C0000080D0020AF
:1055600070B50E0000254468002C0BD02368310074
:105570005B6820009847002802DB2D18E468F3E7F9
:1055800001256D42280070BD70B50D004468002CE7
:1055900008D0236829009B6820009847002802D182
:1055A000E468F4E7200070BD70B50D004468002C7D
:1055B00007D0236829002000DB689847E4682D188D
:1055C000F5E72C7070BD70B50D004468002C08D054
:1055D000236829001B6820009847002802D1E4684E
:1055E000F4E7200070BDF8B542788B790D00017AA0
:1055F0009B18040000208B4222DC6368834219D18F
:105600006560002623786A71EA792B719B182370F4
:10561000AB79B34213D9AB68B7006078DF19FFF7F5
:10562000C3FB3B68013603606378F6B201336370F5
:10563000EEE70B00D9680029FBD1DD60E1E701202E
:10564000F8BD000070B50126054D064C2B683342AD
:1056500003D12000FFF7A0FB2E60200070BDC046E4
:10566000100D0020140D0020F7B506000D000C00F1
:105670008B180193019B671B9C4207D033682178EC
:105680001B683000984701340028F3D13800FEBD74
:1056900070B5040008000D0000F032FF236802001E
:1056A00029005B682000984770BD10B50B1E02D022
:1056B000FFF7EEFF0300180010BD10B503688A68FD
:1056C0005B680968984710BD10B5FFF7EEFF10BD85
:1056D00010B503681B68984710BD0B0010B50A6829
:1056E000010012681800904710BD000010B5024973
:1056F000FFF7CEFF10BDC046746C000070B504000B
:10570000FFF7D3FF05002000FFF7F0FF401970BD41
:1057100070B50500FFF7E1FF04002800FFF7E6FF82
:10572000201870BDF0B58BB06B4615000022053314
:105730000600DA770800012D00D80A2509AC2900F7
:1057400000F0BCFDCAB2130037330700DBB20929F1
:1057500002D813003033DBB2013C2370002FEED1AE
:1057600021003000FFF7A1FF0BB0F0BDF8B5060037
:105770000C00151E04D10368C9B21B689847F8BD18
:105780000A2A0CD100290BDA2D21FFF7A1FF614273
:1057900007002A003000FFF7C5FF3818EFE7D2B244
:1057A00021003000FFF7BEFFE9E770B50400FFF706
:1057B000DDFF05002000FFF799FF401970BD10B50F
:1057C000002A04D10368C9B21B68984710BDD2B241
:1057D000FFF7A8FFFAE710B5FFF7F1FF10BD10B50E
:1057E00004000068002801D000F0AAFD200010BDD0
:1057F00010B504000068002801D000F0A1FD0023CE
:105800002360A360636010BD70B504000D000068E4
:10581000013100F059FE031E01D0012028C470BDE3
:10582000036810B50400002B04D043688B4201D3F9
:10583000012010BD2000FFF7E7FF0028F9D0A36882
:10584000002BF5D122681370F2E770B50E0011003D
:1058500004001500FFF7E4FF002804D12000FFF743
:10586000C7FF200070BD2A003100A560206800F04D
:1058700071FD00232268A1685354F2E7002370B53C
:1058800004000D00036043608360994207D0080064
:1058900000F036FE290002002000FFF7D6FF2000AE
:1058A00070BD10B50B000400884205D009680029BE
:1058B00004D09A68FFF7C9FF200010BDFFF798FFDA
:1058C000FAE7002310B50400036043608360FFF72C
:1058D000E8FF200010BDF7B504000F0016000029F6
:1058E00003D1002301930198FEBD01230193002AF7
:1058F000F9D08368D5182900FFF792FF0028F0D06F
:105900002368A26839009818320000F023FD0022B5
:105910002368A5605A55E6E710B58A680968FFF75D
:10592000DAFF10BD70B5050008000C0000F0E8FDBE
:10593000210002002800FFF7CEFF70BD002310B544
:10594000994202D0FFF7EEFF0300180010BD1FB50B
:1059500004000A220800694600F0DCF869462000CD
:10596000FFF7E0FF04B010BD1FB504000A220800D5
:10597000694600F0A4F869462000FFF7D3FF04B0A1
:1059800010BDFEE7034B10B51B68002B00D09847F5
:1059900010BDC046200D002070B50F490F4CA1422C
:1059A00004D100F0E3F800F0B9F8FEE70C4D002355
:1059B0008D42F6D0CA18E818A24205D3094B82429C
:1059C000EFD00949002204E0006804331060F1E7D9
:1059D00004C38B42FCD3E4E700000020E000002079
:1059E000DC6C0000E0000020380D002010B500F055
:1059F00064F8002801D100F055F810BD014B186083
:105A00007047C046200D0020014B18687047C04603
:105A1000240D0020F7B51348012284461249134C87
:105A20008E68636805689B0E1340019288686268FF
:105A3000019F920E3A4067463F6893420ED1BD42A5
:105A40000CD186420AD35B19FA254868AD00861B43
:105A500007486B437043000DC018FEBD3D001300A6
:105A60000600E3E7240D002010E000E000ED00E078
:105A70005555000070B5041E10D0FFF7CBFF050090
:105A800000F01AF8FFF7C6FF054B401B9842F7D904
:105A9000FA23013C9B00ED18002CF3D170BDC046E9
:105AA000E703000010B5034A13680133136000F0E8
:105AB00031FB10BD240D0020704700207047F0B569
:105AC0000D008BB0170000290ED0931E222B1FD87B
:105AD00001AC26002300002809D1A64207D02A00E5
:105AE000B34210D80023137028000BB0F0BD39006A
:105AF00000F0E4FBCBB2092903D830332370013422
:105B0000E8E75733FAE7013B197811700132E7E70C
:105B10000025E9E710B5FFF7D2FF10BD10B500F082
:105B2000D5F800F0DFFBFDF787FD0120FFF7A2FFAE
:105B3000084C2000FEF7E0FB2000FEF78BFCFCF792
:105B400035FBFCF787FB044B002BFAD000E000BFCD
:105B5000F7E7C0464C0700200000000010B500F039
:105B6000E5FB10BD10B500F0EBFB10BD1E2270B5BB
:105B700046484749436893431C3A1343436008230C
:105B80008C6923438B61434C434B9C829C8A144316
:105B90009C82DC681442FCD00124404A14701578C1
:105BA000254203D055786DB2002DF8DB01249460B6
:105BB000547864B2002CFBDB394C5460547864B2E6
:105BC000002CFBDB8224E4015480547864B2002C66
:105BD000FBDB02249C840E34DD682542FCD0314C72
:105BE000DC621024DD682542FCD09D8C2E4C2C43B9
:105BF0009C841024DD682542FCD002249D8C8026E4
:105C00002C439C844024DD683542FCD0DD6825426D
:105C1000F9D01024DD682542FCD00024946054782B
:105C200064B2002CFBDB214C5460547864B2002C2D
:105C3000FBDB1C6A1E4D2C4080251C621C6AAC4399
:105C40001C62032393601B4B536053785BB2002BA1
:105C5000FBDB0023FF240B72174A4B728B72CB7253
:105C6000164B1A60164B174A1B6811689A065B019F
:105C7000C90E2340520F12020B431343124A1385DD
:105C8000802342681343436070BDC046004000411A
:105C9000000400400C06000000080040000C00401A
:105CA00001050100B905FF7D040A0000000703009B
:105CB000FFFCFFFF03060100006CDC024000002037
:105CC000246080002060800000400042FA21314BB7
:105CD00010B51868890000F06BFA2F4B0138984214
:105CE00056D82E492E4A4860C020136A00061B026F
:105CF0001B0A03431362002407238C600B6080217E
:105D0000136A09061B021B0A0B431362FC22254B74
:105D1000196A0A431A62FC22196A92010A431A623A
:105D2000A022196AD2020A431A62E0B200210134A9
:105D300000F0EEF80F2CF8D11B4B1C005A7852B231
:105D4000002AFBDB194A5A80194B1A00597EC909EF
:105D50000129FBD0E421C90099803F21D970537EED
:105D6000DB09012BFBD0C02300205B011361907085
:105D700000F02EF863785BB2002BFBDB0D4B0E4A74
:105D80006380D379DB09012BFBD04123537010BD15
:105D9000FEE7C04640000020FFFFFF0010E000E0EB
:105DA00000ED00E000040040000C00401E40000038
:105DB000004000422140000000480042914202D0D1
:105DC00002D98A1AD0407047521A9040FBE700006F
:105DD000164A00B51300517EC9090129FBD00138CC
:105DE000042816D81969124A0A400F211A615A78F4
:105DF0008A4300F0D3F90308060B030011000122C7
:105E00000A435A7000BD11000322F9E71100022273
:105E1000F6E7F02311691B050B430F21136153783B
:105E20008B43190002230B435370EBE70040004201
:105E3000FFFFFFF010B504000E2801D80F34E4B2C4
:105E40000121200000F0F4F81823102163432B4CAB
:105E5000E4186156002901D014290DD1284B1800EF
:105E6000DA79D209012AFBD002241A78A2431A70E7
:105E7000C379DB09012BFBD022480300427ED20903
:105E8000012AFBD01F2402692140A2430A43026178
:105E90005A7ED209012AFBD0022219780A431A70CD
:105EA0005A7ED209012AFBD00222197B0A431A73B7
:105EB0001A7ED207FCD501221A765A7ED209012A0F
:105EC000FBD00222197B0A431A731A7ED207FCD533
:105ED000588B80B25A7ED209012AFBD002211A784F
:105EE0008A431A705A7ED209012AFBD0064B1A68DF
:105EF000064B1968FFF762FF10BDC0462868000016
:105F000000480042004000424800002044000020B9
:105F1000182330B51D00040045430820204A5519B8
:105F20002856013014D0032912D808006343D156F3
:105F3000D31800F033F902280E1B5868CB01022158
:105F4000184A9B181A1840321170012282405A6078
:105F500030BD5868CB010621124A9B181A184032EE
:105F60001170012282405A609A61F1E75868CB01B2
:105F700006210C4A9B181A184032117001228240E7
:105F80005A605A61E4E75868CB010221054A9B1820
:105F90001A1840321170012282409A60D8E7C04638
:105FA00028680000004400411823F0B50824584335
:105FB000114A13181C5701341BD0012635005F68A5
:105FC0008356BD400D4ADB019A18906805420BD1FB
:105FD0000C00601E8441D2194032107834400336E0
:105FE000A400B04320431070044A9B18002901D13B
:105FF0005D61F0BD9D61FCE7286800000044004140
:10600000182310B50824434307490020CA18145721
:10601000013408D05B560549DB015B18186A5368E8
:10602000D8400123184010BD2868000000440041FA
:1060300018224243F8B52C4E0300B218127A52B21D
:10604000140001320ED0481C00240C280AD800F09D
:10605000A5F80720202020202020200B0B0B0B0070
:10606000012464422000F8BD092905D10021D8B2DD
:10607000FFF74EFF0024F5E70A2902D1D8B208390C
:10608000F6E700240B29EDD1D8B20A39FFF740FF1B
:10609000E8E718204343F2185568F3562C00134ADA
:1060A000DB016E0817389B18C9B204409E19002CFA
:1060B0000DD00F2430363278090122401143C9B285
:1060C0005B19317040331A7810431870D2E73200F0
:1060D0000F27303216785B19BE43314311704033BD
:1060E0001A7810431870BDE728680000004400418A
:1060F00010B50400FDF750FF014B1C6010BDC046F9
:106100004C0000200122024B52421A607047C046E8
:106110004C000020164A10B51368591C26D0013BCC
:106120001360002B22D172B6124B134A04339342F0
:1061300013D9124A01211000147D0C42FCD02021F9
:10614000148BFF319B085B0021431183D3610C4BFF
:1061500013800123027D1A42FCD0BFF34F8F094BFD
:10616000094ADA60BFF34F8FC046FDE710BDC04655
:106170004C0000200020000003020000004000410D
:1061800002A5FFFF00ED00E00400FA050B0010B5CA
:106190000100180000F098F810BD000002B471462C
:1061A00049084900095C49008E4402BC7047C0465A
:1061B000002243088B4274D303098B425FD3030A46
:1061C0008B4244D3030B8B4228D3030C8B420DD359
:1061D000FF22090212BA030C8B4202D312120902E7
:1061E00065D0030B8B4219D300E0090AC30B8B4225
:1061F00001D3CB03C01A5241830B8B4201D38B03D3
:10620000C01A5241430B8B4201D34B03C01A524177
:10621000030B8B4201D30B03C01A5241C30A8B42BA
:1062200001D3CB02C01A5241830A8B4201D38B02A5
:10623000C01A5241430A8B4201D34B02C01A524149
:10624000030A8B4201D30B02C01A5241CDD2C309BB
:106250008B4201D3CB01C01A524183098B4201D337
:106260008B01C01A524143098B4201D34B01C01A22
:10627000524103098B4201D30B01C01A5241C3089A
:106280008B4201D3CB00C01A524183088B4201D309
:106290008B00C01A524143088B4201D34B00C01AF5
:1062A0005241411A00D20146524110467047FFE761
:1062B00001B5002000F006F802BDC0460029F7D065
:1062C00076E770477047C04610B5040004481300D5
:1062D000002804D00A000220210000E000BF10BD09
:1062E0000000000070B500260C4D0D4C641BA4107E
:1062F000A64209D1002600F049F90A4D0A4C641B58
:10630000A410A64205D170BDB300EB5898470136E2
:10631000EEE7B300EB5898470136F2E7B4000020EF
:10632000B4000020B4000020D800002010B5034BBA
:106330000100186800F06AF810BDC0465000002047
:1063400010B5034B0100186800F016F810BDC046E8
:1063500050000020002310B59A4200D110BDCC5C43
:10636000C4540133F8E703001218934200D1704778
:1063700019700133F9E7000070B50500002910D04D
:106380000C1F2368002B00DAE418280000F0BFF887
:106390001D4A1368002B05D163601460280000F0CB
:1063A000B7F870BDA34209D9216860188342F3D1C0
:1063B00018685B6841182160EEE713005A68002AEC
:1063C00001D0A242F9D919685818A0420BD120680F
:1063D0000918581819608242E0D1106852684118B3
:1063E00019605A60DAE7A04202D90C232B60D5E786
:1063F00021686018824203D11068526841182160F8
:1064000062605C60CAE7C046280D0020032370B5B7
:10641000CD1C9D43083506000C2D1ED20C25A9422B
:106420001DD8300000F073F8254A146821000029B7
:1064300019D1244C2368002B03D1300000F04EF812
:1064400020602900300000F049F8431C2BD10C23B8
:106450003000336000F05CF803E0002DDFDA0C233D
:106460003360002070BD0B685B1B19D40B2B03D964
:106470000B60CC18256003E04B688C420DD1136093
:10648000300000F045F8200007220B30231D904318
:10649000C31AE7D05A42E250E4E763600C00EFE72A
:1064A0000C004968C3E70323C41C9C43A042E1D00D
:1064B000211A300000F012F8431CDBD1C7E7C046B8
:1064C000280D00202C0D002010B5034B0A00010000
:1064D000186800F01EF810BD50000020002370B5B1
:1064E000064C05000800236000F042F8431C03D16D
:1064F0002368002B00D02B6070BDC046340D0020F7
:106500000023C25C0133002AFBD1581E704770473C
:106510007047F8B507000D001600002905D11100DD
:10652000FFF774FF04002000F8BD002A03D1FFF735
:1065300023FF3400F7E700F012F82C00B042F2D24B
:1065400031003800FFF762FF041EECD02900320052
:10655000FFF700FF29003800FFF70EFFE3E70B1FEE
:106560001B68181F002B01DA0B58C0187047000079
:10657000044A1368002B00D1034B18181060180050
:106580007047C046300D0020380D0020F8B5C046D9
:10659000F8BC08BC9E467047F8B5C046F8BC08BCBD
:1065A0009E4670474D53475F315F434F55525400ED
:1065B0004D53475F325F4D4F59454E5F426F6E6A94
:1065C0006F75725F54454D504F004D53475F335FB9
:1065D0004C4F4E475F426F6E6A6F75725F54454D08
:1065E000504F5F50726F6A65745F446F73696D6579
:1065F0007472655F576946695F325F3447487A0055
:106600004D53475F345F545245535F4C4F4E475F85
:106610004142434445464748494A4B4C4D4E4F50F2
:106620005152535455565758595A4142434445467E
:106630004748494A4B4C4D4E4F5051525354555672
:106640005758595A4142434445464748494A4B4C9A
:106650004D4E4F505152535455565758595A004D5C
:1066600053475F355F4D41585F414243444546477C
:1066700048494A4B4C4D4E4F505152535455565722
:1066800058595A4142434445464748494A4B4C4D64
:106690004E4F505152535455565758595A414243F0
:1066A0004445464748494A4B4C4D4E4F5051525332
:1066B0005455565758595A4142434445464748490C
:1066C0004A4B4C4D4E4F50515253545556575859B2
:1066D0005A4142434445464748494A4B4C4D4E4F28
:1066E000505152535455565758595A4142434445B4
:1066F000464748494A4B4C4D4E4F505152535455C2
:10670000565758595A005041515545542C00544140
:10671000494C4C452C00456E766F7965203A200037
:10672000207C20656E645061636B6574203D2000A1
:10673000496E697469616C69736174696F6E2E2E3C
:106740002E00436F6E6E6578696F6E2061752057FD
:106750006946692E2E2E00436F6E6E6578696F6EE6
:1067600020656E20636F7572732E2E2E00436F6E40
:106770006E65637465206175205769466920210044
:106780004164726573736520495020417264756974
:106790006E6F203A200000000000000000000000A2
:1067A0000724000021250000F52300001B24000021
:1067B00003240000312500008D2500001D24000069
:1067C000512400008D240000ED240000AD240000C1
:1067D0001725000061250000ED250000F9230000C9
:1067E000CB250000A92500000102030000000000E5
:1067F0000000000063330000D73300007533000051
:106800007F33000043330000E533000029340000EB
:10681000653500006534000061330000613300001D
:106820001535000065330000000000001600000070
:10683000080000001C000000FF0000040004060027
:106840000000000017000000080000001C0000000D
:10685000FF00010401040700000000000A0000001E
:10686000080000001C000000120000010001FF00F1
:10687000000000000B000000080000001C000000E9
:10688000130001010101FF00010000000A000000E7
:10689000080000001C000000FF00000500050A00C1
:1068A000010000000B000000080000001C000000B8
:1068B000FF00010501050B000000000014000000AE
:1068C000080000002C000000FF000200020004008D
:1068D0000000000015000000080000002C0000006F
:1068E000FF0003000300050000000000100000008E
:1068F000020000001C000000FF0000020002000077
:106900000000000011000000020000000400000070
:10691000FF00FFFFFFFF0100000000001300000068
:10692000020000001C000000FF0001030103FF0043
:106930000000000008000000030000000400000048
:106940001000FFFFFFFF1000000000000900000022
:1069500003000000040000001100FFFFFFFFFF0024
:106960000100000017000000030000000400000008
:10697000FF00FFFFFFFFFF00010000001600000006
:106980000300000004000000FF00FFFFFFFFFF0006
:1069900000000000020000000100000006000000EE
:1069A0000000FFFFFFFFFF000100000002000000E9
:1069B00001000000040000000A00FFFFFFFF0200CA
:1069C00001000000030000000100000004000000BE
:1069D0000B00FFFFFFFF03000000000004000000A9
:1069E000010000001C000000040000000000FF0087
:1069F0000000000005000000010000001C00000075
:106A0000050001000100FF0000000000060000007A
:106A100001000000040000000600FFFFFFFFFF0070
:106A2000000000000700000001000000040000005A
:106A30000700FFFFFFFFFF0000000000180000003C
:106A40000600000000000000FF00FFFFFFFFFF0046
:106A50000000000019000000060000000000000017
:106A6000FF00FFFFFFFFFF0000000000120000001A
:106A70000800000004000000FF00FFFFFFFFFF0010
:106A800000000000030000000800000004000000F7
:106A9000FF00FFFFFFFFFF00000000000C000000F0
:106AA0000300000000000000FF00FFFFFFFFFF00E9
:106AB000000000000D0000000300000000000000C6
:106AC000FF00FFFFFFFFFF00000000000E000000BE
:106AD0000800000000000000FF00FFFFFFFFFF00B4
:106AE000000000000F000000030000000000000094
:106AF000FF00FFFFFFFFFF00000000001B00000081
:106B00000800000000000000FF00FFFFFFFF0F0073
:106B1000010000000800000008000000060000005E
:106B20000200FFFFFFFFFF0001000000090000005E
:106B30000100000018000000030001040104090026
:106B4000000000000000000008000000000000003D
:106B5000FF00FFFFFFFFFF0000000000010000003A
:106B60000800000000000000FF00FFFFFFFFFF0023
:106B7000000000001C0000000800000004000000ED
:106B8000FF00FFFFFFFFFF0000000000000000000B
:106B9000113D0000353F00000D3D0000193F000091
:106BA000F93E0000713F0000553F0000273F000004
:106BB000253D0000913C0000513E0000B93C000022
:106BC000F0FFFFFF00000000E93E0000413E000032
:106BD000953F0000FD3C00000000000000000000A8
:106BE000F5410000574F00002F4F00003B4F0000C1
:106BF0005D4000005F4000004D410000417264753F
:106C0000696E6F204D4B52205769466920313031F3
:106C100030000403090441726475696E6F204C4CA6
:106C2000430012010002EF020140412354800001A1
:106C3000010203010000000000000000E153000019
:106C400069560000E34F00002F500000DD4F0000A8
:106C50007D540000F34F0000CD4F00008D50000028
:106C60000B500000C94F00000000000000000000B1
:106C7000B15400000D0A00000000000000000000F8
:106C80000000000000000000000000000000000004
:106C900000000000000000000000000000000000F4
:106CA00000000000000000000000000000000000E4
:106CB00000000000000000000000000000000000D4
:106CC00000000000000000000000000000000000C4
:0C6CD000000000000000000000000000B8
:106CDC000000000056090000050000004469616BCB
:106CEC006C6C6F40000000008D13000047616C61FC
:106CFC0078792053392B303130350007050A0000E4
:106D0C00FFFFFFFF00C2010000000800FFFFFFFFB4
:106D1C0040420F000A0000000A000000FFFFFFFFC6
:106D2C005400002000000000986C0000B86C0000BB
:106D3C00786C000000000000000000000000000063
:106D4C000000000000000000000000000000000037
:106D5C000000000000000000000000000000000027
:106D6C000000000000000000000000000000000017
:106D7C000000000000000000000000000000000007
:106D8C0000000000DD2000002D210000E1230000A8
:106D9C00292700009D3500005137000049400000B4
:106DAC00B94F000049550000B5200000000000005C
:040000030000599907
:00000001FF
